:020000040000fa
:080000000002040000000000f2
:020000040000fa
:100400004fcb2000007f2400000188000000000086
:100410000c00070060952400010020001100070077
:10042000000020000000e000020032000000020096
:1004300000000000ac340200000000000040da00c0
:100440000000fe004440a900003221000000e0004e
:100450000300320000002000a00188004440a800f2
:100460000000060091018800800078000000eb0089
:1004700015003700e280400032a0b4009101ba00bc
:10048000e280400032a0b4009102ba00e280400055
:1004900032a0b4000002eb00472bde00f507b200eb
:1004a000602ce10004003a000059eb008301e900f0
:1004b000fdff3e00040037006128e100010032002a
:1004c0000082eb00040007001101ba000200e00006
:1004d000e8ff3a00000006003159ba008301e90044
:1004e0000c0032002159ba008301e90008003200f3
:1004f0000400e00003003a00e280400032a0b400b3
:10050000f5ff370011d9ba008301e900faff3a007c
:100510008100e800e180400032a0b4000000060045
:10052000ba03040000000000e8030400000000001b
:10053000461004000000000000000400000000005d
:10054000889fbe00e30440000900a100808f540092
:100550004a003600e38f540001003e0049002000ad
:10056000326280000200e000020032008200780067
:100570000c00370081c4200003003700908f540026
:10058000230036008080e800110078000000e000c1
:10059000faff3a000f003700908f54001c0036001d
:1005a0008080e800110078000000e000faff3a00c7
:1005b0001201780081c4200003003700908f54009e
:1005c000130036008080e80011007800820f500090
:1005d000faff3a0028628000890f540001003100c0
:1005e00009047800080078009b0007000000e00084
:1005f00004003a00890f5400200032000804d100a2
:10060000f5ff3700081878001f000700d4ff3700f7
:10061000110178009201780064805100890f500028
:1006200003003100120090008008780007003700b6
:1006300009004100800878009201900013009800a2
:1006400011007800128814000909780091007800e0
:100650000100e00005003200110090000000e00001
:10066000020032000180e800010037000000eb00ca
:10067000306288000280e800010037000000eb00d3
:100680004f04be00000006000000e0003100320010
:100690008080e90091027800e38f52002d0036003f
:1006a0000508a3002b003a00426280000200e0002f
:1006b00002003200828f50000400310002087800ee
:1006c0004162880016003700030178009201900013
:1006d0000300e00002003200818f5100faff390070
:1006e0001202780004004100808f50001900390088
:1006f000810f500003003a00050942008200780093
:10070000070037000300e0000300320005804000ce
:10071000808f51000f00390093009800110198005c
:10072000110190000200e0000a0032001180400038
:10073000820f500007003a0060c420000008eb0060
:100740001100900011017800900841001000900005
:10075000900098000000060080007800010037003b
:100760000000e8001004e000fdff3a000100500026
:1007700000000600881f7800020478003d00070092
:10078000080040004f047800000006000000fa0056
:10079000881f7800000478003fb99700ea8157006d
:1007a00080007800a03b200039000700800078001e
:1007b0000000e000020035000040eb0000f478008b
:1007c000010078004f0478000080fa000000060065
:1007d000889fbe0080047800010078000204780041
:1007e0008901780011002000e2000700880f500006
:1007f000010032008004eb00090078004f04be00c5
:10080000000006000000fa004fb99700e881570089
:1008100081bb2000803e20001d0007000080fa0000
:100820000000060081bb2000270107000000e00057
:100830000600350081bb2000a000200068010700f1
:100840008000eb000000e00001003d008080eb0034
:1008500001007800000006000000e0000300340002
:1008600023060700e10f400001003a000000eb0002
:10087000000006008001eb000200370061f0790003
:100880008301e800828f5100fcff3a00000006005f
:100890006200fa00889fbe008a9fbe000004be006e
:1008a000020578008300780060f92f000f004000f7
:1008b0007101070088979f0099979f000000eb0047
:1008c000a09f9f009a4578000b80fb000000ea0083
:1008d000cf04de0050c2b30080cf550002003200ca
:1008e00009047800010037000904e9000800e0006d
:1008f0000b0034001f909700080178008a007800f0
:100900008f9197000300010090979f000000e00086
:10091000930032002f98970000004400a09f9f0092
:100920000905450050c2b30080cf550004003200d5
:100930000b04e000e3ff3a002f989700890037008e
:100940000000eb00809f9f00f0979f00e0979f00c2
:10095000d0979f00c0979f00b0979f00c09f9f00b7
:100960000900370060c320000080500000004000f4
:10097000a1c22000e10078004f98970001007000ac
:10098000c09f9f000a05e8001a4478008800fb0019
:1009900060c320003d010700800078000000e000f7
:1009a000f0ff3a00a0c2b300804f54000e003a009e
:1009b000bf8897000180e900b08f9f001000780089
:1009c000b09f9f000000e00005003d000000ea002d
:1009d000b09f9f004f9897000020a000c09f9f00ed
:1009e0000a05e80010003700b19f9f0003fd2f00ab
:1009f000f4ff2700080037003f989700840f50004d
:100a0000040032006a00b900000041000300400009
:100a1000b09f9f000a05e8001a01fb000300410097
:100a2000e90f5000f4ff3600e0c2b3009a4f100007
:100a3000040032000080eb00909f9f008a04780041
:100a40001c0037008a04e800a0c2b300994f1000d0
:100a500007003a00bf8897000180e900b08f9f002f
:100a600010007800909f9f008a84e80011003700f2
:100a70000000eb00909f9f0003fd2f00f4ff270074
:100a8000080037001f989700840f500004003200c0
:100a90006a00b9000000410003004000909f9f00e1
:100aa0008904e8001901fb0003004100e90f500030
:100ab000f4ff3600194478008800fb00c0c3200012
:100ac000f20007000000e00002003a000044780055
:100ad000010037008904e800a87f9f0080c6b300aa
:100ae000804f540004003a00994f14000a003a0065
:100af0006640500006003700c0c6b300804f540067
:100b000005003a00994f140003003a006540400088
:100b1000a07f9f008904e8000905e800cbfb2f00b7
:100b20008f8545001901fb0060f92f000f00400080
:100b30000084e8008b0178008000780008007800cd
:100b4000db0007000000e00005003a008b007800a1
:100b500008007800190207000000e00059ff3d007e
:100b60000080eb004f05be004f04be000080fa007d
:100b700000000600889fbe008a9fbe008c9fbe00ba
:100b80008e1f7800810678008304780000067800c4
:100b90000288b900000778000000e00002003a0077
:100ba00000017800420037000d00e00040003200f4
:100bb00000057800c900900069009000808f500007
:100bc0000400390009007800c60207000000e000b8
:100bd00029003500004020001900600003003a00a1
:100be0000a047800800578000b0037000a017800bd
:100bf000a10020000c007800fd02070080057800ad
:100c00000000e00002003a000a0478000200370009
:100c10000c0050000004e800c90190006900900039
:100c200003005000880f50000200310000047800db
:100c30008005eb00080178008c0078000300780044
:100c40000cff070008064600080555004900900003
:100c500000004400c00498000b00e00004003200d3
:100c600009007800ec0207000000e00002003a00f2
:100c70000a00e000cfff3a00008020001900600069
:100c80000200320009007800e302070000c02000e3
:100c9000190060000200320049009000e004980052
:100ca0000a005700110009000d80d80000017800eb
:100cb000020078004f0778004f06be004f05be00c7
:100cc0004f04be0000000600889fbe008a9fbe0041
:100cd00000057800810478002d003700c9009000dd
:100ce00069009000808f50000400390009007800ee
:100cf0007c0207000000e0003500350000402000c5
:100d00001900600009003200a10020000a007800ec
:100d1000fe020700800578000000e00004003200b9
:100d20000a0050000004e800040037008005780045
:100d30000a00780088fe070000047800c9019000ce
:100d40006900900003005000880f5000020031003d
:100d5000000478008005eb00080178008a00780024
:100d600003007800c3fe0700080545004900900015
:100d700000004400c00498000b00e00004003200b2
:100d800009007800a40207000000e00010003a000b
:100d90001a04e000d1ff3a00008020001900600032
:100da00004003200090078009b0207000000e00008
:100db00007003a0000c02000190060000500320062
:100dc00049009000e00498000000eb0001003700ab
:100dd0000080eb004f05be004f04be00000006007f
:100de000889fbe008a1f7800800478000104780084
:100df00000457800c100900068009000808f50008e
:100e00000400390008007800360207000000e00006
:100e100015003500480090000958780040049800fb
:100e20001800780000b8a30004003a0000a8a3004e
:100e300006003200ea4f550004003a00080078002e
:100e4000750207000000e00007003a0000c0200023
:100e50001800600002003200480090006004980012
:100e60000a80fb00010037000080eb004f0578008e
:100e70004f04be00000006000200fa00f1bf9f0010
:100e8000010878000080fa00000006000400370026
:100e90000204e00001003a00000005000000e80044
:100ea00010417800814f5100f9ff3a000000060020
:100eb000889fbe008a1f7800000478000102780035
:100ec0008244780003057800e0c6b300804f5100eb
:100ed000d200320015003c006b405000804f5100a2
:100ee000240032000a003c0070405000804f510046
:100ef0000f01320065404000804f51007400320005
:100f000050c2b300804f510020013a001c0137004d
:100f100040c6b300804f51001b00320065404000c6
:100f2000804f510019013a001700370030c7b30055
:100f3000804f5100fe00320007003c00644050002a
:100f4000804f5100620032000040e800804f5100a5
:100f50000e013a00e700370050c7b300804f510040
:100f60005b00320063404000804f510007013a00af
:100f7000570037009180e900010a7800780090005e
:100f80009171780007013700a8609000c0c6b300d7
:100f900080cf50000a003a0094007800648050002e
:100fa000000a78001000be004f89de00cf91de00fd
:100fb0000002be00020378008203780013003700ad
:100fc00010c7b30080cf500003003200a0c6b300aa
:100fd00080cf500006003a009400780068805000ee
:100fe000000a78003002be002003be000700370070
:100ff0001480e900000a78001000780000027800f0
:10100000cfa2de000503780086037800049cbe00b2
:101010000694be00a860900080c6b30080cf500048
:101020000e00320020c6b30080cf500005003a0009
:101030000400fb00cf80de0001017800820178000f
:101040000a00370040c7b30080cf500003003200d1
:101050006640400080cf500006003a00040078004f
:10106000cf80de000101780082017800009cbe0084
:101070000294be003800be002801be00e00f500000
:10108000e08f5800e00f5900e08f590003003d0049
:1010900078009000d1c2b3000a0037000810900019
:1010a0000018a3000300320078009000b1c2b30022
:1010b000040037000008a3005300320078009000bd
:1010c00001c2b300017578000000e8004d00370050
:1010d000a8609000c0c6b30080cf500006003a0060
:1010e0009400780064805000000a78001002be006e
:1010f0006033b8001300370010c7b30080cf500032
:1011000003003200a0c6b30080cf500006003a00b2
:101110009400780068805000000a78003002be0019
:101120002003be00070037001480e900000a7800a1
:101130001000780000027800050020000600200062
:1011400007002000049cbe000694be00a86090002a
:1011500080c6b30080cf50000e00320020c6b3001e
:1011600080cf500005003a000480fb000100200001
:1011700002002000030020000a00370040c7b3002f
:1011800080cf5000030032006640400080cf500006
:1011900006003a0004007800010020000200200050
:1011a00003002000009cbe000294be0008109000c6
:1011b0000038a300140032003800be002801be0031
:1011c000e00f5000e08f5800e00f5900e08f590009
:1011d0000d00320080c7b30080cf540003003200fe
:1011e00080c5b30080cf540007003a00780090001b
:1011f00001c3b300017578008000e80009f57800ac
:101200000080e8007004980078009000000045001d
:10121000600498008940780042003700a860900080
:10122000c0c6b30080cf5000250032000a003c0049
:101230006440500080cf50002800320000c0e80019
:1012400080cf5000140032006840500080cf500022
:1012500022003a000a00370040c7b30080cf500098
:101260001e0032006640400080cf50001b0032005c
:101270006940500080cf500018003a000600370047
:101280001480e900000a780010007800485c9000a3
:1012900008487800450037001480e900000a78000b
:1012a0001002780068089000cf80de00010178000d
:1012b00082017800009abe000292be003b00370017
:1012c0001480e900000a7800100178006808900096
:1012d000cf80de000089be00340037001480e900b2
:1012e000000a780010007800680c90000808780068
:1012f0002e0037001180e900800878001000780087
:10130000cf80de000101780082017800009cbe00e1
:101310000294be0078009000000045006004980030
:1013200081c7b30008007800830107001f00370061
:101330001480e900000a780010007800600498002a
:10134000580990000200e00002003d0002fd070085
:10135000090037008000eb002501070080007800bd
:101360000000e000030032006800900000805000a0
:101370000100370058089000100c98000b0037004f
:101380007800900002757800060037007800900021
:10139000800045000904e00001003a0059c2b30092
:1013a000894878000000e800700498000000eb0015
:1013b0004f0578004f04be00000006000400fa004c
:1013c000889fbe008a9fbe008c1f780000047800b2
:1013d0000106780070089000f800900001005000ad
:1013e000880890000100500098089000010050000b
:1013f000a808900001005000b808900001005000bb
:10140000c8089000810550000002220090bf9f0094
:1014100000032300a0bf9f00081090000028a30035
:1014200018003a000b00e000160034008b0478002e
:1014300009057800e28f5400020036002a002000df
:10144000020037000900e0000b0034005800900053
:10145000c80190000a017800ee80570003000100e7
:10146000500498000000e0009600320068089000e8
:1014700000004500600c98008a8454004240a90096
:10148000ebff3c00780190000200e0000b0034000c
:1014900058009000c80190008c0078000300010003
:1014a000500498000000e0008600320068089000b8
:1014b000f800900001004000600c9800880c90003b
:1014c0000900e0001500340009057800e28f54009f
:1014d000020036002a002000020037000900e00068
:1014e0000b00340058009000c80190000a017800f9
:1014f000ec80570003000100500498000000e00059
:10150000700032006808900000004500600c9800f0
:101510008a8454004240a900ebff3c001809900067
:101520000200e0000b003400e8009000580090003a
:10153000c801900003000100500498000000e00082
:101540006000320068089000980890000100400098
:10155000600c9800a80c90000900e0001500340011
:1015600009057800e28f5400020036002a002000ae
:10157000020037000900e0000b0034005800900022
:10158000c80190000a017800ec80570003000100b8
:10159000500498000000e0004a0032006808900003
:1015a00000004500600c98008a8454004240a90065
:1015b000ebff3c00380990000200e0000d00340011
:1015c000e8009000180890008080400058009000cb
:1015d000c801900003000100500498000000e000e2
:1015e0003800320068089000b80890000100400000
:1015f000600c9800c80c90000900e0001500340051
:1016000009057800e28f5400020036002a0020000d
:10161000020037000900e0000b0034005800900081
:10162000c80190000a017800ec8057000300010017
:10163000500498000000e00022003200680890008a
:1016400000004500600c98008a8454004240a900c4
:10165000ebff3c00081090000028a3001b003200a4
:101660000b00e000190034008b04780009057800b5
:10167000e28f5400020036002a00200002003700ea
:101680000900e0000b00340058009000c8019000f1
:101690000a017800ee805700030001005004980012
:1016a0000000e000070032006808900000004500dc
:1016b000600c98008a8454004240a9000300340062
:1016c000eaff37000080eb00010037000000eb006c
:1016d0004f0678004f05be004f04be000080fa00a0
:1016e00000000600889fbe0000047800c001900042
:1016f000600090008000eb00808f510039003900bd
:10170000180178002000290000006100e20f50005d
:1017100007003200002020000200e0000100350038
:1017200000202400000c71008080eb002d003700a9
:101730000100260001006100810f500008003a00fe
:1017400038009000808f51000500390008007800b3
:10175000310007008080eb000000e00021003a002b
:1017600000c020001800600017003a00a804900094
:101770006002200008004000808f540012003a00f0
:10178000002020006efb07008000780020049800f5
:101790000000e00005003a00290498004904980080
:1017a0000900e80030049800060037001860a00027
:1017b000400498000020b00030049800410c9800cc
:1017c000510c9800e5010700280090005004980093
:1017d000380090006004980000002600180c70008b
:1017e0008000eb00010078004f04be0000000600fe
:1017f0008001eb00040037008301e80090cf100067
:10180000040032000000e800828f5100faff3a0025
:101810000000eb0000000600889fbe000004780076
:101820000000e0000e003a008004780008b82000b4
:10183000180078000000e00004003200f6ff070006
:101840000000e00001003d008084eb000884e80017
:1018500000b92000800f540029003200f4ff370047
:10186000000022001800600024003200a80490004c
:101870000800370009015000384090000000fb00cc
:1018800089007800300207000000e00013003400f7
:101890008084440048009000808f5400f5ff390098
:1018a00028009000400498001801780000c0200033
:1018b0000000610002003200a80090000100370023
:1018c000b800900000002400000061000a0032000f
:1018d000610498008004eb000900370028009000a4
:1018e0004004980060049800500c98001890a000e4
:1018f0008084eb0002003700510c980080047800cf
:10190000090078004f04be00000006008001eb00d3
:1019100010417800814f510001003a0080017800a9
:101920000204e000020032000000e800f8ff370087
:1019300003007800000006002f03b000889fbe005f
:101940008a9fbe008c9fbe008e1f78000007780023
:1019500090c12000c0b79f0080c5b30080cf500069
:101960000800320082c02000c2b79f0077404000cc
:1019700080cf500003003a0083002000b3b79f00df
:101980000a00370080c7b30080cf50000500320046
:10199000a4002000b4b79f0080c5b30080cf5000e2
:1019a00002003a0005012000b5b79f003e04be00ca
:1019b0002e05be0040c6b30080cf500003003200a9
:1019c0006540400080cf50000b003a00e00f54000b
:1019d000e08f5c00e00f5d00e08f5d0006003d00e1
:1019e0006000b8006011b8000804500089845800f5
:1019f0000a0559008b855900bfb39700e88f530043
:101a000003003200f08f530045003a000200370017
:101a1000360020000100370046002000e00f54008f
:101a2000e08f5c00e00f5d00e08f5d0005003a0094
:101a30005e08900081012000a1b79f000000e00037
:101a4000080032003fb197000200e9000800600082
:101a5000cfb197006340780090df9f0074012000b1
:101a6000a4b79f00860278008502e90005003300d4
:101a70008b05d1000a85d3008984d3000884d30064
:101a8000f9ff3700089fbe000a97be00afb397006a
:101a90000700e90021fc2f008f80400000824000f9
:101aa0003fb197008202e90012003700afb3970000
:101ab0008703e900a7b79f0000806200cfb09700be
:101ac000615278003e00be002e01be008603780001
:101ad0008703e900050033008381d1000281d30030
:101ae0008180d3000080d300f9ff3700009fbe0043
:101af0000297be003e00be002e01be00e00f500067
:101b0000e08f5800e00f5900e08f5900d6003400f4
:101b1000afb397000700e000e4ff3c00d2003700bd
:101b2000ae60900080c6b30080cf50000b00320042
:101b300006003c000104e00008003200664050004e
:101b400080cf500073003a0004003700c0c6b300d5
:101b500080cf50006f003a00310037000801780054
:101b60000800e00005003a005e08900081012000b6
:101b7000a1b79f000000e00009003200bfb197004c
:101b8000110009000381d8008000fd004fb29700ca
:101b90006440780090df9f0075012000a5b79f008a
:101ba000bfb39700110009000781d80080017800b9
:101bb000afb097000100e90022fc2f000f014100a7
:101bc000000241000c003700bfb29700110009006d
:101bd0008501d80000017800afb397008703e900c2
:101be000a7b79f000590b90000805100cfb09700c3
:101bf00061527800820178000300e00003003400a5
:101c00002fb197000200e000efff3c0003007800d6
:101c1000cf80de0001017800820178003a003700b1
:101c20000806be00e00f5400e08f5c0005003a009b
:101c30005e08900083012000a3b79f000000e00031
:101c4000090032003fb297006121b9000c00be00cc
:101c500025030700cfb297006540780090df9f0012
:101c600077012000a7b79f003fb297006121b9001c
:101c70000c00be001f0307000006be00afb29700b5
:101c80000500e90027fc2f008f8343008083430079
:101c900097b79f00110037003fb197006114b9005a
:101ca0000801be000c00be00220307000005be00b4
:101cb000afb197008301e900a3b79f000801be0000
:101cc00079010700000056001fb29700cfb29700bd
:101cd0006552780094b79f000a06be00e00f5600d8
:101ce000e08f5e0003003400afb397000700e00010
:101cf000e9ff3c004feade00cfa2de000c00be0090
:101d00000401780084017800009fbe000297be00a5
:101d100055003700e00f5400e08f5c00e00f5d00dd
:101d2000e08f5d0005003a005e0890008101200010
:101d3000a1b79f000000e0000d0032003fb1970006
:101d400002027800cfa2de00050378008603780047
:101d50000800be000a01be00860307004fb29700cc
:101d60006440780090df9f0075012000a5b79f00b8
:101d70003fb1970002027800cfa2de000503780091
:101d8000860378000800be000a01be007203070047
:101d9000009fbe000297be00afb197000300e900ac
:101da00024fc2f000f0242000006420020003700f2
:101db000bfb2970005047800cfc4de0009057800a3
:101dc0008a0578000802be000a03be005fa89700db
:101dd000efa897007fa997008fb1970069030700cc
:101de000d0b79f00e1b79f00f2b79f0083bf9f006d
:101df000afb397008703e900a7b79f000802be00b2
:101e00000a03be00e50307005faa97000000520026
:101e1000cfb29700655678005fb09700efb097009b
:101e20007fb197008fb99700009fbe000297be0058
:101e30003e00be002e01be00d0af9f00e1af9f006c
:101e4000f2af9f0083b79f00e00f5000e08f580073
:101e5000e00f5900e08f590003003400afb0970045
:101e60000100e000d2ff3c003fb19700e80f5100b5
:101e700013003a000e1090000038a300100032004a
:101e8000afb19700f78f510006003e0024fc2f00f1
:101e90000f0242008300420000c3b300914f1000c4
:101ea00007003200afb297008502e900a5b79f0096
:101eb00000c3b30027fc2f008f83430080f37a0018
:101ec000afb1970078811100120f98006e0090005a
:101ed00024fc2f000f0242008300420065fa070035
:101ee0001e0990005e089000800f510006003d0022
:101ef00002005000000f98000e1090000040a1005a
:101f0000001798000f0037000000e0000d003d00b2
:101f10000e10900074006000f00f500009003a00ad
:101f20007e089000fe009000010050008e08900096
:101f300001005000020050004240a900010034009e
:101f4000000f98004f0778004f06be004f05be00f7
:101f50004f04be002f03b10000000600881f780068
:101f6000c8c420001804e00004003a006004210006
:101f70005200070020c0b300004c78004f047800e6
:101f800000000600889fbe000004780022fe0700c3
:101f90008004780000042000180060000200320075
:101fa00028009000b8f907000000eb00200498001a
:101fb000384090000004e000050035000000fb0000
:101fc000980007000000e000010032008084eb0070
:101fd000181090000000e000080032009a0007008e
:101fe0000000e000010032008084eb001810900037
:101ff000a5f907000000eb0010149800000820006d
:1020000018006000100032000000eb0001b8200052
:10201000910f1400070032000000e8008180e80002
:10202000e80f5000faff3a000800780096f9070020
:1020300013003700000140008000eb0000b82000d2
:1020400001307900f8ff3700000c780000c0eb0089
:1020500030449800600220000800400020049800ee
:102060004004980050049800400c980060049800c8
:10207000500c98007004980076004400000c980002
:10208000090078004f04be0000000600881f780099
:10209000e8b82000180078000000e00001003200dd
:1020a000b8ff07000884e900e0b72000800f540063
:1020b000f8ff3a004f0478000000060000017800a5
:1020c000000020000000e000080032000000800056
:1020d0000000e000050032000000e9000000880078
:1020e000000040000100800002b0780000000600ff
:1020f000889fbe0080047800706280000000e000cd
:1021000003003a00590007000000e0000a00350013
:10211000706280000900e00002003a0000047800cc
:102120000600370000047800090040004f00070057
:102130000000e00001003d000084eb000800780092
:102140004f04be00000006000a00fa00800178007b
:10215000e20f500028003e0050628000e10f500066
:1021600008003200802320000000e000050032005b
:10217000042320002523200046232000800178002e
:1021800004003700042220002522200046222000df
:1021900083222000144090000004e0000400350079
:1021a0008009eb00144090000074a00010429800d9
:1021b000154090000028a30003003a00154090004d
:1021c0000024a000904298008001eb000700370037
:1021d000154090000008a300fdff320063c07800a6
:1021e0000000fb00000b78008301e800828f5100a3
:1021f000f7ff3a000800370030002000b0bf9f0012
:10220000c3bf9f00d1bf9f00e2bf9f006a805700fd
:1022100000c0da006fb99700020078000080fa0071
:10222000000006000a00fa0011002000b1bf9f0064
:10223000c0bf9f006a80570000c0da004fb8970007
:102240000080fa00000006000a00fa005100200099
:10225000b1bf9f00c0bf9f006a80570000c0da0076
:102260005fb897000080fa00000006008000780048
:102270000000e00004003a0000c520007062880001
:1022800001017800060037000081eb0040cb200000
:10229000808f500002003e00716288000001eb0058
:1022a0000200780000000600020ab900001bb90015
:1022b0000200b800810042008100430000000600d7
:1022c0000001be001a0107000470a70003f0a1007e
:1022d00003f8a30013003a006509b10010003200b2
:1022e000090035006928e1000200350001002800de
:1022f0000000050000004000818048008502e900e0
:10230000fcff3a0000000600f88f4200050035008f
:102310008100d1000080d3008502e800fcff3a0074
:10232000000006008000eb0000000500889fbe0052
:102330008a9fbe00010578000100e000040035001e
:1023400008003c000000e0002000320005003700db
:1023500060001000e080180002003b0001f02c003b
:102360001a0037000004be006011b8006b0920009d
:102370000982cf00020039000882cf000441b0007a
:10238000694252000e00320008003b008281710059
:10239000610164008904d1000884d3008b05e80042
:1023a0000442e800f9ff3a00050037000804440041
:1023b00089844c008b05e9000442e900fbff3a00e8
:1023c000f00007000af0a70001f0a0004f05be00d2
:1023d0004f04be000000060003f0a200889fbe006c
:1023e0008a9fbe008c1f78000c0107001301330088
:1023f0006450e1004f0032006420e10052003200de
:1024000003826c0007003b000905d0000306d000e2
:10241000820f54000c065d000200390002003200f9
:1024200089017800030678008582550004003d008c
:102430000003fd008103fd008502ea008b85420058
:10244000840f720002003b0060001000e080180062
:102450006011b8000005eb007a28e1000a0039009d
:1024600006007800c75ddd00f707b20087807500c1
:102470002d003700828171000a017800610560003b
:102480008180d1000080d3008502e900f9ff3b0084
:10249000060440008784480002003b0060041400ea
:1024a000e0841c000988a300070032008a817100c3
:1024b00082817100610164008904d1000884d30025
:1024c0008b05e800170037000978a30013003a00d5
:1024d0000b00e000130034008b05e9000804440001
:1024e00089844c000a4474000978a3000d003a0066
:1024f0000b00e000070034008b05e90008044400ed
:1025000089844c0001003a000b0020000978a300e8
:10251000f7ff32000001eb000200370082817100fa
:102520000a017800970007000cf0a70001f0a00056
:10253000cb0037006420e10002003a00838f6c007a
:10254000cb0033000801be000200be00c40037000b
:1025500014002000c9003700889fbe008a9fbe007b
:102560008c1f7800ad000700b400330003866c00b8
:102570006450e1002e0032006420e100330032009c
:102580006150e1002f0032006120e1003100320093
:1025900085855500eb07b0000900200008042000e5
:1025a000050037000804440089844c000a0031000b
:1025b0000603430087834b000001530081815b00c9
:1025c000f8ff33000203be000800a0000804440026
:1025d00089844c00f6ff3900c639dd0083017300a1
:1025e00001003200130020008904d1000884d300c8
:1025f0000998a300050032000800a7000300a0000e
:102600008904d1000884d3008b05e8008904d10037
:102610000884d3000001eb000281d20059000700ba
:1026200001f0a1000cf0a70001f0a0008c00370021
:102630006420e1008e0032000801be000200be00ee
:10264000f7ff37006120e100890032006000b80028
:10265000f3ff37000000200001f82700f0ff3700eb
:10266000889fbe008a9fbe008c1f78006b00070009
:102670007200330003866c006450e10024003200d5
:102680006420e100270032006150e10022003200a6
:102690006120e100210032008b854200eb07b10090
:1026a0000134b800003ab8000804420089844a00a6
:1026b000013ab8000030b8008880400009014a00a3
:1026c00004003300000040008180480002014900fe
:1026d0008b05e900c909dd008301700001003200ab
:1026e00013002000c814de004814dd004709de0096
:1026f0001200b200c808de00088470002100070044
:1027000001f0a1000cf0a70001f0a0005400370078
:102710006120e100560032000801be000200be0048
:10272000f7ff37006150e100fcff3a00500037002e
:10273000c70ade00f107b200f50fb2000800320050
:10274000e1cf4200020032000170a0002400050029
:10275000810f7000010032000408050044000500ec
:10276000810f700002003a00140005008502e900a4
:102770000000400081c04800fcff3b000170a00049
:102780002400050081002000618055000b003d0001
:102790000b00200061fe2f000100e1001d0034004d
:1027a00082817100610164008904d1000884d30032
:1027b0000000e800faff3a007100200061006400a8
:1027c0000300700002006000090032006104440050
:1027d000e0844c000988a500050032008b05e80064
:1027e0006808e10002003a008904d1000884d3009f
:1027f000f20f20000258e10005003d00c75ddd003a
:10280000f907b20089807500080078000000060012
:102810000bf827008b007800000005000004be00c4
:10282000c3ff07000003be000405be000200be0097
:10283000bfff0700844f7500000006000200be00c5
:102840006450e100050036006420e100020036001b
:102850000968a30001003a000800be000160a00062
:102860004f0678004f05be004f04be000000060072
:10287000f0ff2f00f1ff2700f9ff3700889fbe000f
:102880008a9fbe00841f7800e4ff07004f00780095
:1028900011003300f0ff2f00838f6c0006003b0017
:1028a000040565000a00a7000800370009f0a6002b
:1028b0001000200008003700820f5400838f5c0056
:1028c000030039001000200001003e00000020003d
:1028d00009f0a7000000ea004f05be004f04be004b
:1028e0000000e00000000600020007000400be0037
:1028f000000006006022b800060220000000d000a0
:102900008180d2000482d2008582d2000000a00023
:102910000202520083825a00030031000202420088
:1029200083824a000000a1000603e900f3ff3a0099
:1029300000000600839f68000100e00002003d00e7
:1029400060001000e08018000300e00002003d007d
:1029500060011100e0811900e6ff07004f00e00070
:1029600002003b0060001000e0801800000006003c
:10297000881f7800000478005001be004000be00af
:102980000400400085804800060149008781490015
:10299000009cbe000294be000400e1000588e10036
:1029a0000690e1000798e100020031006800440051
:1029b0001008e8004f04780000000600f487470084
:1029c000889fbe008a9fbe008c9fbe008e1f78002d
:1029d0000205be000004be00d4b79f00e5b79f000b
:1029e000f6b79f0087bf9f000000eb00c0b79f00b5
:1029f000b0b79f00a0b79f0090b79f0080b79f001f
:102a00000d042000bfb097004fb0970000014000b8
:102a10000000e0000f003d004f08de0000007100e4
:102a2000c0b79f009e00070001003d00120020007b
:102a3000a100070001003d0012002000a6000700d1
:102a4000b1000700b60007000f004000c8ff0700f4
:102a5000220037004f08de0000067100ccb79f004f
:102a60008f00070001003d001200200092000700c7
:102a700001003d001200200097000700a20007009f
:102a80000fb297009fb297002fb39700bfb3970084
:102a9000a90007000000520081805a0002015b007b
:102aa00083815b0080b79f0091b79f00a2b79f0012
:102ab000b3b79f000007eb009f0007000020e10074
:102ac00001a8e10002b0e10003b8e100010031001b
:102ad0001e0020000e005600c0b79f004fb29700a6
:102ae0000400e00007003500100020000100200075
:102af0006011b80008047000898470000a05710034
:102b00008b8571008d06e900beff3a000400e000ed
:102b100003003d00820007000f00400094ff070003
:102b20004fa897000000e00004003a000fb497009f
:102b30009fb497002fb59700bfb59700940007008a
:102b40004f0778004f06be004f05be004f04be0081
:102b50004f01b10000000600881f78001800200017
:102b6000881f780095ff07008f87e9004f047800e1
:102b700000000600801feb0090ff07008f87e90030
:102b800000000600889fbe008a9fbe008c1f780050
:102b90006e00070007003d0073000700e00f5b00b8
:102ba000e08f5b0007003d00320007000006eb00ed
:102bb000040037003400070002003d002a0007002f
:102bc0001c00200072000700e3ff07000203be00a4
:102bd0000002be000c00e0000100320022000700ed
:102be0000400be000601be004f0678004f05be007f
:102bf0004f04be0000000600889fbe008a9fbe00f2
:102c00008c1f78005100070005003d0056000700aa
:102c1000e00f5b00e08f5b0006003d000400370022
:102c20001900070003003d006000b8006011b80003
:102c30001000070056000700ceff07000203be0089
:102c40000002be000c00e000010032000600070098
:102c50000400be000601be004f0678004f05be000e
:102c60004f04be00000006006000b8006011b8000c
:102c70000000370004025000858258000603590006
:102c800087835900000006000006eb00e00f5200a9
:102c9000e08f5a00e00f5b00e08f5b000000060051
:102ca0000180400090b79f000001eb008fb09700bb
:102cb0000100e000000006000200700090b79f00d5
:102cc0000180400080b79f000001eb00ffa8970043
:102cd0000100e000000006000200700080b79f00c5
:102ce000018040006faa9700cf20de000100700035
:102cf000f0af9f0004024200250007004f18de00dd
:102d00000002720000000600e4af9f0008044400c7
:102d100089844c000a054d008b854d00000006009b
:102d20003fb29700cfb297005fb39700efb3970021
:102d300000fe2f00000006003fb09700cfb09700c4
:102d40005fb19700efb19700000006000205be00da
:102d50000004be00e00f5000e08f5800e00f590063
:102d6000e08f5900000006006000b8006011b80054
:102d700008045000898458000a0559008b855900c1
:102d80001c002000e00f5200e08f5a0000000600f7
:102d90000800be000a01be0000000600889fbe00b9
:102da0008a9fbe008c1f78000205be000004be0092
:102db0000006eb00e00f5000e08f5800e00f5900d4
:102dc000e08f590007003d006000b8006011b800b6
:102dd00008045000898458000a0559008b85590061
:102de0001c002000e00f5200e08f5a00e00f5b0053
:102df000e08f5b0002003d000f0007000c00a20006
:102e00000800be000a01be00120007000203be0057
:102e10000002be000c00e0000100320006000700c6
:102e20000400be000601be004f0678004f05be003c
:102e30004f04be00000006006000b8006011b8003a
:102e40000402500085825800060359008783590008
:102e500000000600889fbe008a9fbe008c9fbe00b7
:102e60000404b8000506b8008904460060854e00d9
:102e70000606b8000a054600e0854e000706b800c1
:102e80008b054600040eb800890446000a854e00f2
:102e9000e0854d00050eb8000a0546008b854e0002
:102ea000060eb8008b0546000416b8000a05460059
:102eb0008b854e000516b8008b054600041eb80031
:102ec0008b0546000800be000a01be004f06be008a
:0c2ed0004f05be004f04be0000000600cd
:020000040000fa
:020000040005f5
:0457f8004e700000ef
:020000040000fa
:020000040005f5
:0457fc00793f0000f1
:020000040000fa
:10000800da3f0000da3f0000da3f0000da3f000084
:10001800da3f0000da3f0000da3f0000da3f000074
:10002800da3f0000da3f0000da3f0000da3f000064
:10003800da3f0000da3f0000da3f0000da3f000054
:10004800c2310000da3f0000da3f0000da3f00006a
:10005800da3f0000da3f0000da3f0000da3f000034
:10006800da3f0000da3f0000da3f0000ea32000021
:10007800da3f0000da3f0000da3f0000da3f000014
:10008800da3f0000da3f0000da3f00006232000089
:1000980032340000da3f0000da3f0000da3f0000a7
:1000a800da3f0000da3f0000da3f0000da3f0000e4
:1000b800da3f0000da3f0000da3f0000da3f0000d4
:1000c800da3f0000da3f0000da3f0000da3f0000c4
:1000d800da3f0000da3f0000da3f0000da3f0000b4
:1000e800da3f0000da3f0000da3f0000da3f0000a4
:1000f800da3f0000da3f0000da3f0000da3f000094
:10010800da3f0000da3f0000da3f0000da3f000083
:10011800da3f0000da3f0000da3f0000da3f000073
:10012800da3f0000da3f0000da3f0000da3f000063
:10013800da3f0000da3f0000da3f0000da3f000053
:10014800da3f0000da3f0000da3f0000da3f000043
:10015800da3f0000da3f0000da3f0000da3f000033
:10016800da3f0000da3f0000da3f0000da3f000023
:10017800da3f0000da3f0000da3f0000da3f000013
:10018800da3f0000da3f0000da3f0000da3f000003
:10019800da3f0000da3f0000da3f0000da3f0000f3
:1001a800da3f0000da3f0000da3f0000da3f0000e3
:1001b800da3f0000da3f0000da3f0000da3f0000d3
:1001c800da3f0000da3f0000da3f0000da3f0000c3
:1001d800da3f0000da3f0000da3f0000da3f0000b3
:1001e800da3f0000da3f0000da3f0000da3f0000a3
:0801f800da3f0000da3f0000cd
:020000040000fa
:10020800da3f0000da3f0000da3f0000da3f000082
:10021800da3f0000da3f0000da3f0000da3f000072
:10022800da3f0000da3f0000da3f0000da3f000062
:10023800da3f0000da3f0000da3f0000da3f000052
:10024800c2310000da3f0000da3f0000da3f000068
:10025800da3f0000da3f0000da3f0000da3f000032
:10026800da3f0000da3f0000da3f0000ea3200001f
:10027800da3f0000da3f0000da3f0000da3f000012
:10028800da3f0000da3f0000da3f00006232000087
:1002980032340000da3f0000da3f0000da3f0000a5
:1002a800da3f0000da3f0000da3f0000da3f0000e2
:1002b800da3f0000da3f0000da3f0000da3f0000d2
:1002c800da3f0000da3f0000da3f0000da3f0000c2
:1002d800da3f0000da3f0000da3f0000da3f0000b2
:1002e800da3f0000da3f0000da3f0000da3f0000a2
:1002f800da3f0000da3f0000da3f0000da3f000092
:10030800da3f0000da3f0000da3f0000da3f000081
:10031800da3f0000da3f0000da3f0000da3f000071
:10032800da3f0000da3f0000da3f0000da3f000061
:10033800da3f0000da3f0000da3f0000da3f000051
:10034800da3f0000da3f0000da3f0000da3f000041
:10035800da3f0000da3f0000da3f0000da3f000031
:10036800da3f0000da3f0000da3f0000da3f000021
:10037800da3f0000da3f0000da3f0000da3f000011
:10038800da3f0000da3f0000da3f0000da3f000001
:10039800da3f0000da3f0000da3f0000da3f0000f1
:1003a800da3f0000da3f0000da3f0000da3f0000e1
:1003b800da3f0000da3f0000da3f0000da3f0000d1
:1003c800da3f0000da3f0000da3f0000da3f0000c1
:1003d800da3f0000da3f0000da3f0000da3f0000b1
:1003e800da3f0000da3f0000da3f0000da3f0000a1
:0803f800da3f0000da3f0000cb
:020000040000fa
:102edc00556e0000686100006e6400006c650000b7
:102eec0064200000696e00007465000072720000be
:102efc0075700000742c0000200000005049000088
:102f0c0043320000344600004a32000035360000df
:102f1c00474200003130000036000000756e0000a2
:102f2c006b6e00006f7700006e00000041350000f2
:102f3c000041000033000000446500007669000089
:102f4c006365000020490000442000003d20000083
:102f5c000020000028000000292c00002072000036
:102f6c006576000069730000696f00006e20000038
:102f7c00002900000a0000000a0a00002a2a0000aa
:102f8c002a2a00002a2a00002a2a00002a2a0000e5
:102f9c002a2a00002a2a00002a2a00002a2a0000d5
:102fac002a2a00002a2a00002a2a00002a2a0000c5
:102fbc002a2a00002a2a00002a2a00002a2a0000b5
:102fcc002a2a00002a2a00002a2a00002a2a0000a5
:102fdc002a2a00002a2a00002a2a00002a2a000095
:102fec002a2a00002a0a00002a200000574100006b
:102ffc00524e0000494e0000472000002d200000da
:10300c00746800006973000020700000726f00008b
:10301c0067720000616d0000207700006173000092
:10302c00206300006f6d0000706900006c6500008b
:10303c0064200000666f00007220000074680000bd
:10304c0065200000777200006f6e000067200000a2
:10305c002a0a00002a200000636800006970000042
:10306c00206f000072200000666f000072200000cc
:10307c00616e0000207500006e6b00006e6f00002a
:10308c00776e000020720000657600006973000006
:10309c00696f00006e2000006f6600002074000055
:1030ac00686900007320000063680000697000000c
:1030bc002120000020200000202000002a0a00000f
:1030cc002a20000054680000697300002070000082
:1030dc00726f000067720000616d0000206d0000cf
:1030ec006179000020700000726f000064750000b0
:1030fc0063650000207500006e65000078700000ac
:10310c0065630000746500006420000062650000c7
:10311c0068760000696f00007221000020450000f5
:10312c0064690000742000002a0a00002a200000b4
:10313c007468000065200000686500006164000090
:10314c006572000020660000696c00006573000069
:10315c00207400006f200000707200006f7000007f
:10316c00657200006c790000206400006566000048
:10317c00696e00006520000074680000697300002f
:10318c002063000068690000702000006f7200006e
:10319c00202000002a0a00002a200000726500008e
:1031ac0076690000736900006f6e000020610000fa
:1031bc006e640000207400006f200000696e000037
:1031cc007375000072650000206300006f720000d0
:1031dc007265000063740000206f000070650000d1
:1031ec0072610000746900006f6e00002e200000f8
:1031fc0020200000202000002020000020200000c3
:10320c002a0a00002a2000002020000020200000b4
:10321c0020200000202000002020000020200000a2
:10322c002020000020200000202000002020000092
:10323c002020000020200000202000002020000082
:10324c002020000020200000202000002020000072
:10325c002020000020200000202000002020000062
:10326c002020000020200000202000002a0a00005e
:10327c002a2000004e4f0000544500003a20000068
:10328c00496600002074000068690000732000008b
:10329c007761000073200000636f00006d70000008
:1032ac00696c000065640000206600006f7200000d
:1032bc002074000068650000206300006f7200003d
:1032cc0072650000637400002063000068690000f0
:1032dc00702c0000202000002a0a00002a20000088
:1032ec00616e0000642000006f6e00006c790000bd
:1032fc00206f0000636300007572000073200000f3
:10330c0061740000207000006f770000657200008f
:10331c002d6f00006e200000286e00006f740000fe
:10332c002064000075720000696e000067200000c8
:10333c00612000004d4300004c5200002020000092
:10334c00202000002a0a00002a20000072650000dc
:10335c0073650000742c000020760000657200007c
:10336c006966000079200000746800006174000038
:10337c00204100005644000044200000616e000013
:10338c0064200000415600005353000020610000ef
:10339c0072650000206300006f6e00006e65000017
:1033ac0063740000656400002e20000020200000e3
:1033bc002a0a00002a2000004f6e00002074000032
:1033cc0068650000205000004943000032340000c2
:1033dc004833000032470000503200003032000009
:1033ec002c2000006e6f000074200000636f000042
:1033fc006e6e000065630000746900006e6700006b
:10340c002041000056440000442000002020000011
:10341c002020000020200000202000002a0a0000ac
:10342c002a200000707200006f64000075630000b9
:10343c0065730000207400006869000073200000b0
:10344c006d6500007373000061670000652000006b
:10345c006f6e00006c790000206100007420000089
:10346c00706f000077650000722d00007570000011
:10347c002e20000020200000202000002020000032
:10348c0020200000202000002a0a00002a2a000028
:10349c002a2a00002a2a00002a2a00002a2a0000d0
:1034ac002a2a00002a2a00002a2a00002a2a0000c0
:1034bc002a2a00002a2a00002a2a00002a2a0000b0
:1034cc002a2a00002a2a00002a2a00002a2a0000a0
:1034dc002a2a00002a2a00002a2a00002a2a000090
:1034ec002a2a00002a2a00002a2a00002a2a000080
:1034fc002a2a00002a0a000000460000617300001e
:10350c007420000052430000204f00007363000041
:10351c000a00000046610000737400002052000095
:10352c00432000004f730000632000007769000007
:10353c0074680000205000004c4c00000a00000091
:10354c0050720000696d000061720000792000006b
:10355c004f7300006320000028580000542c00001a
:10356c0020480000532c0000204500004329000097
:10357c000a00000050720000696d000061720000ca
:10358c00792000004f7300006320000028580000d1
:10359c00542c000020480000532c00002045000053
:1035ac0043290000207700006974000068200000a7
:1035bc00504c00004c0a00000053000065630000f2
:1035cc006f6e00006461000072790000204f0000f3
:1035dc00736300000a0000004c6f000077200000ad
:1035ec00506f00007765000072200000524300000d
:1035fc00204f0000736300000a00000046610000c9
:10360c007374000020520000432000004f73000030
:10361c0063200000776900007468000020500000ef
:10362c006f73000074730000636100006c65000030
:10363c00005500006e6b00006e6f0000776e00008e
:10364c00206f000073630000696c00006c61000067
:10365c00746f000072200000747900007065000027
:10366c002e0000000a44000065760000696300002b
:10367c006520000068610000732000006265000096
:10368c00656e0000206900006e200000736c000065
:10369c0065650000702000006d6f0000646500001f
:1036ac000a0000000a44000065760000696300000f
:1036bc006520000068610000732000006265000056
:1036cc00656e0000206900006e2000006964000037
:1036dc006c650000206d00006f640000650a00003e
:1036ec00000a0000526500007365000074200000a1
:1036fc006361000075730000653a00002000000053
:10370c00506f000077650000722d00006f6e000096
:10371c002e0a0000005300006f6600007477000052
:10372c0061720000652000005265000073650000a6
:10373c00742e00000a000000576100007463000042
:10374c00686400006f67000020540000696d000081
:10375c00656f0000757400003a200000000a00003c
:10376c00004d0000434c000052200000617300002b
:10377c007365000072740000696f00006e2e00000b
:10378c000a000000427200006f7700006e2d0000ee
:10379c006f750000742e00000a00000054720000c7
:1037ac0061700000204300006f6e0000666c00002a
:1037bc0069630000742e00000a000000496c0000d0
:1037cc006c650000676100006c200000436f000016
:1037dc006e64000069740000696f00006e2e0000ba
:1037ec000a000000436f00006e660000696700006d
:1037fc007572000061740000696f00006e2000009b
:10380c004d690000736d0000617400006368000076
:10381c002e0a0000005500006e6b00006e6f000059
:10382c00776e000020720000657300006574000064
:10383c002e0a000000450000727200006f7200003a
:10384c00207400007261000070700000656400005c
:10385c003a200000005500006e6b00006e6f0000f7
:10386c00776e000020700000726900006f7200001b
:10387c0069740000792f0000766500006374000005
:10388c006f720000000a00000a0000006056000081
:10389c0044490000505f0000496e0000697400004c
:1038ac003a2000005374000061720000746500003f
:1038bc00642e0000600a0000006000005644000006
:1038cc00495000005f4900006e690000743a000026
:1038dc0020460000696e00006973000068650000f6
:1038ec00642e0000600a00000060000056440000d6
:1038fc00495000005f530000796e0000633a0000ed
:10390c0020530000746100007274000065640000b4
:10391c002e6000000a000000450000006056000008
:10392c0044490000505f0000537900006e630000b2
:10393c003a200000466900006e69000073680000c0
:10394c00656400002e6000000a0000006056000054
:10395c0044490000505f000053430000533a0000fc
:10396c002053000074610000727400006564000054
:10397c002e2000005365000074740000696e000076
:10398c0067200000536800006f7200007420000074
:10399c00436f00006d6d0000616e0000642000003c
:1039ac0053650000746000000a00000053430000df
:1039bc00530000006056000044490000505f0000b6
:1039cc0053430000533a000020460000696e00008b
:1039dc006973000068650000642e00002049000037
:1039ec006e200000536800006f720000742000000d
:1039fc00436f00006d6d0000616e000064200000dc
:103a0c0053650000746000000a000000605600005e
:103a1c0044490000505f000053430000533a00003b
:103a2c0020460000696e00006973000068650000a4
:103a3c00642e0000204e00004f540000204900006e
:103a4c006e200000536800006f72000074200000ac
:103a5c00436f00006d6d0000616e0000642000007b
:103a6c0053650000746000000a00000060560000fe
:103a7c0044490000505f000052650000736500006f
:103a8c00743a00002053000074610000727400004e
:103a9c00656400002e6000000a0000006056000003
:103aac0044490000505f000052650000736500003f
:103abc00743a000020460000696e00006973000033
:103acc0068650000642e0000600a000000600000c1
:103adc0056440000495000005f4c00006973000020
:103aec0074440000697200003a2000005374000016
:103afc006172000074650000642e0000600a000012
:103b0c000060000056440000495000005f4c00006b
:103b1c006973000074440000697200003a200000d0
:103b2c00466900006e69000073680000656400005f
:103b3c002e6000000a00000060560000444900009e
:103b4c00505f000044690000724900007465000079
:103b5c006d4300006f7500006e7400003a20000089
:103b6c00537400006172000074650000642e000044
:103b7c00600a00000060000056440000495000003c
:103b8c005f4400006972000049740000656d00001c
:103b9c00436f0000756e0000743a00002046000070
:103bac00696e00006973000068650000642e0000f7
:103bbc00600a0000006000005644000049500000fc
:103bcc005f460000696c000065530000697a0000d4
:103bdc00653a00002053000074610000727400000c
:103bec00656400002e6000000a00000060560000b2
:103bfc0044490000505f0000466900006c650000fd
:103c0c00536900007a6500003a2000004669000004
:103c1c006e69000073680000656400002e6000008f
:103c2c000a0000006056000044490000505f00008c
:103c3c0044690000736b0000457800006973000054
:103c4c00747300003a20000053740000617200008d
:103c5c0074650000642e0000600a00000060000023
:103c6c0056440000495000005f4400006973000096
:103c7c006b4500007869000073740000733a000013
:103c8c0020460000696e0000697300006865000042
:103c9c00642e0000600a0000006000005644000022
:103cac00495000005f460000696c0000654500004b
:103cbc007869000073740000733a00002053000010
:103ccc007461000072740000656400002e600000d6
:103cdc000a0000006056000044490000505f0000dc
:103cec00466900006c6500004578000069730000af
:103cfc00747300003a200000466900006e690000f1
:103d0c0073680000656400002e6000000a0000006b
:103d1c006056000044490000505f000052650000ee
:103d2c0061640000466900006c6500003a200000e8
:103d3c00537400006172000074650000642e000072
:103d4c00600a00000060000056440000495000006a
:103d5c005f5200006561000064460000696c000061
:103d6c00653a000020460000696e0000697300008f
:103d7c0068650000642e0000600a0000006000000e
:103d8c0056440000495000005f5700007269000063
:103d9c0074650000466900006c6500003a20000064
:103dac00537400006172000074650000642e000002
:103dbc00600a0000006000005644000049500000fa
:103dcc005f570000726900007465000046690000ce
:103ddc006c6500003a200000466900006e69000026
:103dec0073680000656400002e6000000a0000008b
:103dfc006056000044490000505f000057720000fc
:103e0c006974000065460000696c0000654e000096
:103e1c003a200000537400006172000074650000c9
:103e2c00642e0000600a0000006000005075000065
:103e3c0074200000696e000020420000696e0000d2
:103e4c0061720000792000006d6f00006465000055
:103e5c00600a0000006000004f700000656e0000fa
:103e6c00207400006865000020660000696c00008a
:103e7c0065200000666f0000722000007772000061
:103e8c0069740000696e0000676000000a000000a1
:103e9c006057000072690000746500002074000017
:103eac00686500002061000063740000756100000b
:103ebc006c2000006d6500007373000061670000ea
:103ecc00652e0000600a000000600000436c0000da
:103edc006f7300006520000074680000652000000e
:103eec00666900006c650000600a0000006000005c
:103efc0056440000495000005f57000072690000f2
:103f0c0074650000466900006c6500004e3a0000c4
:103f1c0020460000696e00006973000068650000af
:103f2c00642e0000600a000000600000564400008f
:103f3c00495000005f440000656c0000657400008f
:103f4c0065460000696c0000653a000020530000d3
:103f5c007461000072740000656400002e60000043
:103f6c000a0000006056000044490000505f000049
:103f7c00446500006c650000746500004669000033
:103f8c006c6500003a200000466900006e69000074
:103f9c0073680000656400002e6000000a000000d9
:103fac006056000044490000505f00005072000051
:103fbc00696e0000744c00006973000074440000ca
:103fcc00697200003a200000537400006172000016
:103fdc0074650000642e0000600a0000003a0000c6
:103fec00200000006056000044490000505f0000b3
:103ffc0050720000696e0000744c00006973000080
:10400c0074440000697200003a2000004669000008
:10401c006e69000073680000656400002e6000008b
:10402c000a000000310000003500000039000000db
:10403c004400000032000000360000004100000087
:10404c004500000033000000370000004200000073
:10405c00460000003400000038000000430000005f
:10406c0047000000494e0000495400005f44000026
:10407c0045460000415500004c5400005f430000d1
:10408c00430a000000430000686f00006f730000db
:10409c00652000004d6f00006465000000580000b2
:1040ac002d4300006f7500006e74000072790000e3
:1040bc00004900004e490000545f000054520000bb
:1040cc00414300004b0a00000054000072610000e4
:1040dc00636b0000004c0000414e0000450a0000dc
:1040ec00004c0000616e0000652000004f70000065
:1040fc00746900006f6e0000004c0000616e0000df
:10410c00650000004e4f00004c4100004e45000081
:10411c000a0000004e6f0000204c0000616e000091
:10412c00650000005354000041520000545f000031
:10413c004f500000544900004f4e00005f4d0000ee
:10414c00454e0000554f000050540000494f0000f0
:10415c004e0a0000004d0000616900006e20000056
:10416c004d6500006e750000005300007461000086
:10417c0072740000204f000070740000696f000022
:10418c006e00000041550000544f00005f440000d9
:10419c00494d00005f4d0000454e0000554f00009a
:1041ac0050540000494f00004e0a0000004100002e
:1041bc00757400006f200000446900006d00000061
:1041cc00454e000054450000525f0000535400005f
:1041dc0041520000545f00004d4500004e55000058
:1041ec004f500000544900004f4e00000a000000e0
:1041fc00456e0000746500007241000073530000ae
:10420c00746100007274000000520000454100000f
:10421c00445900005f4d0000454e0000554f000012
:10422c0050540000494f00004e0a0000005200009c
:10423c0065610000647900003f00000053540000e9
:10424c0041520000545f00004f50000054490000e0
:10425c004f4e00005f530000494e0000474c0000d9
:10426c00450a000000530000696e0000676c0000f6
:10427c00650000005354000041520000545f0000e0
:10428c004f500000544900004f4e00005f4d00009d
:10429c00554c0000544900000a0000004d75000008
:1042ac006c7400006900000041550000544f000080
:1042bc005f440000494d00005f4500004e41000086
:1042cc00424c0000450a0000004500006e610000f1
:1042dc00626c00006500000041550000544f000066
:1042ec005f440000494d00005f440000495300004a
:1042fc00414200004c4500000a00000044690000e7
:10430c0073610000626c000065000000454e000007
:10431c0054450000525f000053540000415200000d
:10432c00545f0000454e0000414200004c45000027
:10433c000a000000454e000054450000525f00008a
:10434c005354000041520000545f000044490000e7
:10435c0053410000424c0000450a0000005200008e
:10436c0045410000445900000a000000437500005c
:10437c0072720000656e0000742000005469000029
:10438c006d650000003000003a300000303a00004b
:10439c003030000030000000524500004144000065
:1043ac00595f0000524500004c0a0000005200000a
:1043bc0045410000445900005f42000045470000a1
:1043cc00494e00000a00000043430000202d00006d
:1043dc0020540000696d000065720000205200003e
:1043ec00756e00006e6900006e6700000a00000028
:1043fc00434300005f520000454c0000202d00009c
:10440c0020540000696d000065720000204500001a
:10441c006e640000696e0000670a00000054000022
:10442c0052410000434b0000202d0000205400009e
:10443c00696d00006572000020520000756e00006e
:10444c006e6900006e6700000a00000054720000e4
:10445c00616300006b2000004d6f0000646500007c
:10446c000054000052410000434b00005f5200001a
:10447c00454c0000202d000020540000696d000008
:10448c0065720000204500006e640000696e00003b
:10449c00670a000000460000494e00004953000026
:1044ac00480a000000460000696e000069730000b5
:1044bc0068650000642e00002e2e000000500000e5
:1044cc007265000073730000204500006e740000dc
:1044dc006572000000460000494e00004953000080
:1044ec00485f000052450000432000002d200000d2
:1044fc0052650000706f000072740000696e00005d
:10450c0067200000546900006d650000730a00000c
:10451c0000460000494e000049530000485f00006f
:10452c00524500004c2000002d200000476f000079
:10453c00696e000067200000746f000020490000c5
:10454c004e490000545f0000444500004641000005
:10455c00554c0000545f0000434300000a0000006b
:10456c005354000041540000455f000052450000c8
:10457c0053450000540a000000250000750000009f
:10458c003a000000257500002e250000750a000079
:10459c0000740000696d00006520000025750000a6
:1045ac003a200000257300000062000075660000d0
:1045bc006665000072200000257500003a2000009e
:1045cc0025730000006f0000687900006561000031
:1045dc00682e000074780000740000000a6200006d
:1045ec00756600006665000072200000747500009e
:1045fc00726e000065640000206f000066660000ab
:10460c00000a000074720000617000005f7400000a
:10461c0065730000742e0000632c00002062000003
:10462c00756900006c740000206f00006e200000a3
:10463c004d61000072200000323900002032000071
:10464c003031000031200000617400002032000085
:10465c00303a0000313900003a330000370a0000cc
:10466c00007e00004d610000696e00004465000092
:10467c0062750000672000006f6e0000203a000099
:10468c00290a00000054000072610000636b0000f6
:10469c00546900006d650000720000005765000051
:1046ac006c6300006f6d0000652e00002e2e000064
:1046bc00000000000a0a0000596f0000757200002b
:1046cc00206300006c6f0000636b0000206300002f
:1046dc00686f0000696300006520000066610000df
:1046ec00696c000065640000207400006f200000fd
:1046fc00696e000069740000696100006c6900005b
:10470c007a6500002c2000006861000076650000ce
:10471c002073000077690000746300006865000076
:10472c0064200000746f0000206900006e740000ab
:10473c00657200006e6100006c2000004661000094
:10474c007374000020520000432000006f730000bf
:10475c00636900006c6c0000617400006f720000f3
:10476c00202b0000504c00004c2e00000a4300008f
:10477c0068650000636b0000207900006f75000015
:10478c00722000007365000074740000696e0000f4
:10479c0067200000666f0000722000007468000043
:1047ac0065200000274300004c4f0000434b0000e5
:1047bc005f4300004f4e00004649000047270000b1
:1047cc00206d000061630000726f00002e0a000073
:1047dc0057610000746300006820000074680000da
:1047ec0065200000636f00006d700000696c0000b4
:1047fc0065720000206f0000757400007075000079
:10480c0074200000776900006e6400006f77000070
:10481c0020770000686500006e20000070690000c1
:10482c0063320000345f0000636c00006f630000b3
:10483c006b66000072650000712e000063200000a2
:10484c0069730000206300006f6d00007069000048
:10485c006c650000642c00002061000020770000d3
:10486c00617200006e6900006e670000206d000030
:10487c006573000073610000676500000a77000033
:10488c00696c00006c200000746500006c6c00000a
:10489c00207900006f75000020740000686500002e
:1048ac0020730000656c00006563000074650000f7
:1048bc0064200000766100006c750000652000002b
:1048cc00666f000072200000274300004c4f000070
:1048dc00434b00005f4300004f4e00004649000070
:1048ec00472700002e0a0000496e0000204d0000f2
:1048fc00504c0000414200002c2000007573000059
:10490c0065200000507200006f6a000065630000b3
:10491c00742d00003e420000756900006c640000bc
:10492c00204f000070740000696f00006e7300006f
:10493c002d3e0000507200006f6a0000656300009d
:10494c00742c000020740000686500006e200000cc
:10495c00636c0000696300006b2000006f6e000048
:10496c00204d0000504c000041420000204300004c
:10497c0033300000207400006162000020740000dd
:10498c006f20000073650000652000006966000060
:10499c00200a000074680000652000006d610000b2
:1049ac00637200006f200000697300002064000037
:1049bc0065660000696e00006564000020740000ec
:1049cc0068650000726500002e200000496600003a
:1049dc002074000068650000206d00006163000019
:1049ec00726f0000206900007320000073650000e6
:1049fc006c65000063740000696e000067200000a5
:104a0c00616e000020650000787400006572000083
:104a1c006e6100006c20000063720000797300006e
:104a2c00746100006c2000002874000068650000b0
:104a3c0020700000726900006d6100007279000046
:104a4c00206f000073630000696c00006c61000053
:104a5c00746f0000722900002c0a0000616e0000c7
:104a6c0064200000796f0000757200002062000065
:104a7c006f61000072640000206400006f6500002c
:104a8c00732000006e6f000074200000686100004d
:104a9c007665000020610000206300007279000040
:104aac0073740000616c00002c200000796f000012
:104abc0075200000776900006c6c00002067000016
:104acc006574000020740000686900007320000009
:104adc006d6500007373000061670000652e0000b7
:104aec000a440000656c000065740000652000003d
:104afc0074680000652000006d61000063720000a6
:104b0c006f20000064650000666900006e6900009b
:104b1c00746900006f6e000020660000726f000068
:104b2c006d20000074680000652000004d500000ee
:104b3c004c41000042200000707200006f6a0000bf
:104b4c006563000074200000696600002079000095
:104b5c006f75000020770000616e0000742000006b
:104b6c00746f000020750000736500002074000055
:104b7c006865000020640000656600006175000037
:104b8c006c740000200a0000636c00006f6300006e
:104b9c006b200000636800006f6900006365000013
:104bac00206f0000662000004652000043200000e9
:104bbc002b200000504c00004c2e00000a59000025
:104bcc006f750000206d00007573000074200000ec
:104bdc0072650000636f00006d700000696c00006e
:104bec0065200000616e000064200000726500000a
:104bfc00707200006f670000726100006d20000091
:104c0c007769000074680000206100006e200000cd
:104c1c0061700000707200006f700000726900001b
:104c2c006174000065200000434c00004f430000fd
:104c3c004b5f0000434f00004e4600004947000008
:104c4c0020630000686f00006963000065200000ad
:104c5c00666f000072200000746800006973000029
:104c6c00206300006f64000065200000746f00007a
:104c7c002065000078650000637500007465000015
:104c8c002e0a000000450000727200006f720000d6
:104c9c00206900006e2000002e2e00005c630000d6
:104cac006f6d00006d6f00006e5c0000706900009d
:104cbc0063320000345f0000636c00006f6300001f
:104ccc006b66000072650000712e0000632000000e
:104cdc006c6900006e650000203100003834000063
:104cec003a2000004153000053450000525400008c
:104cfc0028750000385f0000736f000075720000ab
:104d0c0063650000203c00002038000029200000d2
:104d1c0066610000696c0000656400002e0a0000ea
:104d2c0000000000554100005254000031200000ea
:104d3c007061000072690000747900002065000049
:104d4c00727200006f7200000a00000055410000f2
:104d5c00525400003120000066720000616d0000aa
:104d6c00696e00006720000065720000726f000021
:104d7c00720a00000055000041520000543100003e
:104d8c00206f00007665000072720000756e0000e6
:104d9c0020650000727200006f7200000a000000b3
:104dac0045720000726f000072200000696e0000f6
:104dbc00202e00002e2f0000696e0000636c000096
:104dcc0075640000652f00007069000063320000fc
:104ddc00345f000075610000727400002e680000e2
:104dec00206c0000696e0000652000003737000061
:104dfc003a2000004153000053450000525400007b
:104e0c00286600005f62000072670000203c000012
:104e1c002036000035350000333500002e350000fb
:104e2c002920000066610000696c000065640000c8
:104e3c002e0a0000005500004152000054320000c0
:104e4c00207000006172000069740000792000007d
:104e5c0065720000726f0000720a000000550000bd
:104e6c0041520000543200002066000072610000c4
:104e7c006d6900006e670000206500007272000012
:104e8c006f7200000a0000005541000052540000ef
:104e9c00322000006f760000657200007275000011
:104eac006e20000065720000726f0000720a000034
:104ebc0000450000727200006f7200002069000053
:104ecc006e2000002e2e00002f6900006e63000083
:104edc006c750000646500002f70000069630000b1
:104eec00323400005f75000061720000742e000007
:104efc00682000006c6900006e6500002032000024
:104f0c00333500003a2000004153000053450000a7
:104f1c0052540000286600005f62000072670000b7
:104f2c00203c0000203600003535000033350000f1
:104f3c002e3500002920000066610000696c00001d
:104f4c00656400002e0a000000550000415200006c
:104f5c00543300002070000061720000697400007e
:104f6c007920000065720000726f0000720a000068
:104f7c000055000041520000543300002066000030
:104f8c00726100006d6900006e6700002065000012
:104f9c00727200006f7200000a00000055410000a0
:104fac0052540000332000006f7600006572000040
:104fbc00727500006e20000065720000726f0000b8
:104fcc00720a000000450000727200006f7200004f
:104fdc00206900006e2000002e2e00002f690000ba
:104fec006e6300006c750000646500002f7000009b
:104ffc0069630000323400005f75000061720000cc
:10500c00742e0000682000006c6900006e650000c2
:10501c0020330000393300003a20000041530000d7
:10502c005345000052540000286600005f620000e7
:10503c0072670000203c000020360000353500006f
:10504c00333500002e350000292000006661000079
:10505c00696c0000656400002e0a00000055000019
:10506c0041520000543400002070000061720000b6
:10507c00697400007920000065720000726f0000f6
:10508c00720a000000550000415200005434000028
:10509c0020660000726100006d6900006e67000000
:1050ac0020650000727200006f7200000a000000a0
:1050bc005541000052540000342000006f7600006f
:1050cc0065720000727500006e20000065720000b1
:1050dc00726f0000720a000000450000727200003e
:1050ec006f720000206900006e2000002e2e000060
:1050fc002f6900006e6300006c7500006465000091
:10510c002f70000069630000323400005f750000ee
:10511c0061720000742e0000682000006c690000b1
:10512c006e65000020350000353100003a2000008b
:10513c004153000053450000525400002866000003
:10514c005f62000072670000203c00002036000007
:10515c0035350000333500002e35000029200000c5
:10516c0066610000696c0000656400002e0a000096
:10517c000000000045720000726f000072200000f9
:10518c00696e0000202e00002e5c0000636f000092
:10519c006d6d00006f6e00005c70000069630000b4
:1051ac00323400005f740000696d0000657200000d
:1051bc002e630000206c0000696e0000652000006a
:1051cc00353800003a2000004153000053450000e0
:1051dc0052540000286600005f74000069630000f0
:1051ec006b730000203c00002036000035350000b9
:1051fc00333500002e3500002920000066610000c8
:10520c00696c0000656400002e0a00000045000077
:10521c00727200006f720000206900006e200000a6
:10522c002e2e00005c6300006f6d00006d6f00009f
:10523c006e5c00007069000063320000345f000097
:10524c00746900006d650000722e00006320000080
:10525c006c6900006e65000020370000363a0000d3
:10526c002041000053530000455200005428000018
:10527c00665f000074690000636b0000732000001f
:10528c003c2000003635000035330000352e000080
:10529c003529000020660000616900006c65000083
:1052ac00642e00000a00000045720000726f0000be
:1052bc0072200000696e0000202e00002e5c0000a1
:1052cc00636f00006d6d00006f6e00005c7000007d
:1052dc0069630000323400005f740000696d0000e7
:1052ec00657200002e630000206c0000696e0000e7
:1052fc006520000031310000303a000020410000f0
:10530c00535300004552000054280000753800002b
:10531c005f540000434b000050530000203c000041
:10532c003d20000033290000206600006169000068
:10533c006c650000642e00000a000000457200003d
:10534c00726f000072200000696e0000202e0000b9
:10535c002e5c0000636f00006d6d00006f6e00002e
:10536c005c70000069630000323400005f73000061
:10537c0065720000696100006c2e00006320000063
:10538c006c6900006e65000020370000373a0000a1
:10539c00204900006e760000616c0000696400001a
:1053ac0020550000415200005400000030780000ed
:1053bc0000450000727200006f720000206900004e
:1053cc006e2000002e2e00005c6300006f6d00004c
:1053dc006d6f00006e5c00007069000063320000ad
:1053ec00345f00007365000072690000616c00009e
:1053fc002e630000206c0000696e00006520000028
:10540c0032390000323a0000204900006e7600006c
:10541c00616c0000696400002055000041520000de
:10542c005400000045720000726f000072200000f2
:10543c00696e0000202e00002e5c0000636f0000df
:10544c006d6d00006f6e00005c7000006963000001
:10545c00323400005f730000657200006961000067
:10546c006c2e0000632000006c6900006e6500006b
:10547c0020330000333100003a200000496e000058
:10548c00766100006c69000064200000554100004a
:10549c00525400000000000053500000493100003d
:1054ac00205200006563000065690000766500000d
:1054bc00204f000076650000726600006c6f0000e3
:1054cc00770a000000530000504900003220000011
:1054dc0052650000636500006976000065200000dd
:1054ec004f76000065720000666c00006f7700005c
:1054fc000a000000636f00006e7600006572000009
:10550c0074410000444300003128000029000000d1
:020000040000fa
:10551c006c60a900c822a8002c23a8006c60a8000d
:10552c006060a800600020000100200090100700bf
:10553c00000006006c80a900c842a8002c43a800fb
:10554c006c80a8006080a800600020000100200092
:10555c0087100700000006006ca0a900c862a80014
:10556c002c63a8006ca0a80060a0a800600020001c
:10557c00010020007e100700000006006cc0a9008e
:10558c00c882a8002c83a8006cc0a80060c0a8002a
:10559c0060002000010020007510070000000600cc
:1055ac006ce0a900c8a2a8002ca3a8006ce0a8007d
:1055bc0060e0a80060002000010020006c100700d3
:1055cc00000006006da0a900d882a8006da0a8005c
:1055dc0061a0a800600020000100200064100700fa
:1055ec00000006006dc0a900d8a2a8006dc0a800dc
:1055fc0061c0a80060002000010020005c100700c2
:10560c00000006006de0a900d8c2a8006de0a8005b
:10561c0061e0a80060002000010020005410070089
:10562c00000006006e00a900d8e2a8006e00a800d9
:10563c006200a80060002000010020004c10070050
:10564c00000006007340a900e602a900e002a900d0
:10565c007360a900e622a900e022a9007380a900ca
:10566c00e642a900e042a90073a0a900e662a900e5
:10567c00e062a90000000600dd22a9007300a90069
:10568c00df62a900d962a9007220a900de02a9007c
:10569c00d802a9006c20a900d7a2a900d1a2a90008
:1056ac006c00a900d7c2a900d1c2a9000000060055
:1056bc007300a900d962a8007220a900d802a80022
:1056cc006c20a900d1a2a8006c00a900d1c2a8002e
:1056dc00dd22a800000006006d40a900f702a90019
:1056ec00f102a9006d00a900f6c2a900f0c2a90040
:1056fc006d20a900f6e2a900f0e2a9007480a900cf
:10570c00ee02a900e802a9006f60a900cf22a9004f
:10571c00c922a9002d23a80000000600c9ff07001c
:10572c00e402a900e422a900e442a900e462a90071
:10573c006d80a900c9e2a8002de3a8006d80a80027
:10574c006e20a900e882a8006e20a8006e40a90077
:10575c00e8a2a8006e40a8006d60a900f122a80084
:10576c006d60a80060002000010020000010070000
:10577c0000000600e14f5000090032000300390020
:10578c00e24f500010003a000a003700e402a90072
:10579c00e422a800e442a800e462a8000e0037004e
:1057ac00e402a800e422a900e442a800e462a800f4
:1057bc0009003700e402a800e422a800e442a90092
:1057cc00e462a80004003700e402a800e422a80068
:1057dc00e442a800e462a90000000600889fbe0015
:1057ec008a1f7800b12c20009140780000c8b300cb
:1057fc0000c0600002003a00004578000d00370040
:10580c00eac2bf001ac0b3000048a300090032006e
:10581c00eac2bf002ac0b3000058a3000500320042
:10582c00f3c2bf00510420000018a30025003a0069
:10583c003ac0b3000004eb008844780008407800bc
:10584c00ccff0700cb42e20009003d00eac2bf00da
:10585c000048a30006003200eac2bf000058a300b3
:10586c0003003200f3c2bf000018a3000d003a0081
:10587c00e402a900e422a900e442a900e462a90020
:10588c000980fb004200dd008a80fb000100400023
:10589c000000400081012a00608078008080fb00bd
:1058ac00080037000804e800e40f5400e2ff3a0057
:1058bc00e402a900e422a900e442a900e462a900e0
:1058cc0051042000010078004f0578004f04be0001
:1058dc0000000600614160004311dd00d12d200065
:1058ec00914078000134a10082c070008000fd005e
:1058fc00dde2b7008000fd000080fb000001d1005c
:10590c0061416100c12d2000914078000104a1008b
:10591c0082c070008000fd00dce2b7008000fd005a
:10592c004201de00614161004511dd00512d200076
:10593c00914078000154a10082c070008000fd00ed
:10594c00d5e2b7008000fd004300de00614060003e
:10595c004600dd00512d2000914078000164a1002b
:10596c0080c0700001007800d5e2b700000006008e
:10597c0072a0a900df02a900d902a90072c0a90077
:10598c00df22a900d922a90072e0a900df42a900f8
:10599c00d942a900dd22a900dd42a900dd02a9003f
:1059ac00000006006000200001002000700f0700be
:1059bc00dd42a80060002000010020006c0f0700f1
:1059cc00dd42a9006000200001002000680f0700e4
:1059dc0000000600889fbe008a9fbe008c1f7800c6
:1059ec008045780001457800034678000204e00009
:1059fc001d003200dd02a9002dff070040c7bf00cb
:105a0c004500de00e14460000060fe0040a7a800f5
:105a1c00dd42a8006000200001002000540f0700a8
:105a2c00382d2000184478004644de0061046400e0
:105a3c00dd42a90060002000010020004c0f07008f
:105a4c00d8ff07000804e000f1ff3a00e1c0640051
:105a5c00c508dd0040c7bf000054a1000140700024
:105a6c0040e7b7000b00370000a62e000100200015
:105a7c003f0f070060ea200001002000a25b8000bd
:105a8c00b35b80000201400083814800a25b880068
