:020000040000fa
:080000000002040000000000f2
:020000040000fa
:10040000ef252100007f220000018800000000008d
:100410000c00070060d22300010020001f0007002d
:10042000000020000000e000020032000000020096
:100430000000000022300200000000000040da004e
:100440000000fe004440a900602121000000e000ff
:100450000300320000002000a00188004440a800f2
:1004600000000600f03fb1000180b1000600350039
:10047000ee03090000000000403fb1000180b10020
:10048000fbff3d001000b000203fb000020035002f
:1004900000800900000000000000060091018800b3
:1004a000800078000000eb0015003700e28040007b
:1004b00032a0b4009101ba00e280400032a0b40042
:1004c0009102ba00e280400032a0b4000002eb00ca
:1004d000472bde00f507b200602ce10004003a0073
:1004e0000059eb008301e900fdff3e0004003700e6
:1004f0006128e100010032000082eb0004000700e7
:100500001101ba000200e000e8ff3a000000060016
:100510003159ba008301e9000c0032002159ba00b8
:100520008301e900080032000400e00003003a0003
:10053000e280400032a0b400f5ff370011d9ba00c4
:100540008301e900faff3a008100e800e180400001
:1005500032a0b40000000600889fbe00800478002e
:10056000c08f80000000e00003003a006600070032
:100570000000e0000a003500c08f80000900e000a4
:1005800002003a00000478000600370000047800fa
:10059000090040005c0007000000e00001003d0091
:1005a0000084eb00080078004f04be000000060045
:1005b0000a00fa0011002000b1bf9f00c0bf9f00d9
:1005c0006a80570000c0da004fb897000080fa0038
:1005d000000006000a00fa0051002000b1bf9f0091
:1005e000c0bf9f006a80570000c0da005fb8970064
:1005f0000080fa00000006000a00fa004400200013
:10060000b4bf9f00c0bf9f00d2bf9f00e3bf9f0049
:10061000f1bf9f006a80570000c0da005fb8970002
:10062000efb897000080fa00000006000a00fa0008
:1006300080017800e20f500028003e00708f80009b
:10064000e10f500008003200802320000000e0008d
:10065000050032000423200025232000462320002b
:1006600080017800040037000422200025222000a9
:100670004622200083222000144090000004e00065
:10068000040035008009eb00144090000074a000c5
:1006900010429800154090000028a30003003a0083
:1006a000154090000024a000904298008001eb00cb
:1006b00007003700154090000008a300fdff32003e
:1006c00063c078000000fb00000b78008301e800a5
:1006d000828f5100f7ff3a000800370030002000f9
:1006e000b0bf9f00c3bf9f00d1bf9f00e2bf9f006c
:1006f0006a80570000c0da006fb9970002007800e6
:100700000080fa0000000600800078000000e00091
:1007100004003a00a01f2100c08f8800010178006a
:10072000060037000081eb00e0252100808f50009b
:1007300002003e00c18f88000001eb00020078003b
:10074000000006000001be001a0107000470a700a7
:1007500003f0a10003f8a30013003a006509b100fb
:1007600010003200090035006928e1000200350060
:1007700001002800000005000000400081804800c2
:100780008502e900fcff3a0000000600f88f4200f5
:10079000050035008100d1000080d3008502e8000b
:1007a000fcff3a00000006008000eb00000005009e
:1007b000889fbe008a9fbe00010578000100e0000e
:1007c0000400350008003c000000e000200032007a
:1007d0000500370060001000e080180002003b00b8
:1007e00001f02c001a0037000004be006011b800b0
:1007f0006b0920000982cf00020039000882cf0077
:100800000441b000694252000e00320008003b0073
:1008100082817100610164008904d1000884d300e1
:100820008b05e8000442e800f9ff3a0005003700b4
:100830000804440089844c008b05e9000442e90067
:10084000fbff3a00f00007000af0a70001f0a0004b
:100850004f05be004f04be000000060003f0a200da
:10086000889fbe008a9fbe008c1f78000c01070085
:10087000130133006450e1004f0032006420e100b6
:100880005200320003826c0007003b000905d000d3
:100890000306d000820f54000c065d0002003900f0
:1008a0000200320089017800030678008582550035
:1008b00004003d000003fd008103fd008502ea0005
:1008c0008b854200840f720002003b006000100024
:1008d000e08018006011b8000005eb007a28e10004
:1008e0000a00390006007800c75ddd00f707b20096
:1008f000878075002d003700828171000a01780021
:10090000610560008180d1000080d3008502e9008c
:10091000f9ff3b00060440008784480002003b00ca
:1009200060041400e0841c000988a3000700320062
:100930008a81710082817100610164008904d100a3
:100940000884d3008b05e800170037000978a3005e
:1009500013003a000b00e000130034008b05e9009f
:100960000804440089844c000a4474000978a300f8
:100970000d003a000b00e000070034008b05e90091
:100980000804440089844c0001003a000b00200058
:100990000978a300f7ff32000001eb0002003700e6
:1009a000828171000a017800970007000cf0a7000f
:1009b00001f0a000cb0037006420e10002003a0003
:1009c000838f6c00cb0033000801be000200be0024
:1009d000c400370014002000c9003700889fbe0003
:1009e0008a9fbe008c1f7800ad000700b400330062
:1009f00003866c006450e1002e0032006420e100a8
:100a0000330032006150e1002f0032006120e1002c
:100a10003100320085855500eb07b0000900200049
:100a200008042000050037000804440089844c00b5
:100a30000a0031000603430087834b000001530086
:100a400081815b00f8ff33000203be000800a000b4
:100a50000804440089844c00f6ff3900c639dd00e3
:100a60008301730001003200130020008904d100cb
:100a70000884d3000998a300050032000800a700ed
:100a80000300a0008904d1000884d3008b05e8008e
:100a90008904d1000884d3000001eb000281d20058
:100aa0005900070001f0a1000cf0a70001f0a00020
:100ab0008c0037006420e1008e0032000801be0087
:100ac0000200be00f7ff37006120e100890032001c
:100ad0006000b800f3ff37000000200001f8270095
:100ae000f0ff3700889fbe008a9fbe008c1f7800f1
:100af0006b0007007200330003866c006450e10055
:100b0000240032006420e100270032006150e1003f
:100b1000220032006120e100210032008b8542007a
:100b2000eb07b1000134b800003ab80008044200f5
:100b300089844a00013ab8000030b800888040003b
:100b400009014a0004003300000040008180480091
:100b5000020149008b05e900c909dd00830170002d
:100b60000100320013002000c814de004814dd002c
:100b70004709de001200b200c808de0008847000d9
:100b80002100070001f0a1000cf0a70001f0a00077
:100b9000540037006120e100560032000801be0019
:100ba0000200be00f7ff37006150e100fcff3a0091
:100bb00050003700c70ade00f107b200f50fb2009f
:100bc00008003200e1cf4200020032000170a000b4
:100bd00024000500810f70000100320004080500a8
:100be00044000500810f700002003a001400050067
:100bf0008502e9000000400081c04800fcff3b0086
:100c00000170a000240005008100200061805500d3
:100c10000b003d000b00200061fe2f000100e100f1
:100c20001d00340082817100610164008904d100db
:100c30000884d3000000e800faff3a0071002000a9
:100c400061006400030070000200600009003200cf
:100c500061044400e0844c000988a50005003200ce
:100c60008b05e8006808e10002003a008904d10021
:100c70000884d300f20f20000258e10005003d0077
:100c8000c75ddd00f907b2008980750008007800b3
:100c9000000006000bf827008b007800000005001c
:100ca0000004be00c3ff07000003be000405be0031
:100cb0000200be00bfff0700844f75000000060061
:100cc0000200be006450e100050036006420e1002f
:100cd000020036000968a30001003a000800be00c7
:100ce0000160a0004f0678004f05be004f04be0013
:100cf00000000600f0ff2f00f1ff2700f9ff37008a
:100d0000889fbe008a9fbe00841f7800e4ff070012
:100d10004f00780011003300f0ff2f00838f6c002c
:100d200006003b00040565000a00a7000800370024
:100d300009f0a6001000200008003700820f5400c0
:100d4000838f5c00030039001000200001003e008a
:100d50000000200009f0a7000000ea004f05be00d7
:100d60004f04be000000e00000000600881f78006d
:100d7000000478005001be004000be0004004000a6
:100d8000858048000601490087814900009cbe001b
:100d90000294be000400e1000588e1000690e10035
:100da0000798e10002003100680044001008e800e4
:100db0004f04780000000600f4874700889fbe00bb
:100dc0008a9fbe008c9fbe008e1f78000205be0069
:100dd0000004be00d4b79f00e5b79f00f6b79f00a0
:100de00087bf9f000000eb00c0b79f00b0b79f0017
:100df000a0b79f0090b79f0080b79f000d04200010
:100e0000bfb097004fb09700000140000000e00025
:100e10000f003d004f08de0000007100c0b79f00ca
:100e20009e00070001003d0012002000a100070005
:100e300001003d0012002000a6000700b1000700dd
:100e4000b60007000f004000c8ff0700220037006f
:100e50004f08de0000067100ccb79f008f0007002e
:100e600001003d00120020009200070001003d003b
:100e70001200200097000700a20007000fb29700a1
:100e80009fb297002fb39700bfb39700a900070048
:100e90000000520081805a0002015b0083815b00e8
:100ea00080b79f0091b79f00a2b79f00b3b79f0084
:100eb0000007eb009f0007000020e10001a8e1000f
:100ec00002b0e10003b8e100010031001e00200083
:100ed0000e005600c0b79f004fb297000400e0001c
:100ee0000700350010002000010020006011b8004c
:100ef00008047000898470000a0571008b857100f8
:100f00008d06e900beff3a000400e00003003d004a
:100f1000820007000f00400094ff07004fa89700d1
:100f20000000e00004003a000fb497009fb497005f
:100f30002fb59700bfb59700940007004f077800c2
:100f40004f06be004f05be004f04be004f01b1006a
:100f500000000600881f780018002000881f780015
:100f600095ff07008f87e9004f0478000000060016
:100f7000801feb0090ff07008f87e900000006004c
:100f8000889fbe008a9fbe008c1f78006e000700fd
:100f900007003d0073000700e00f5b00e08f5b007f
:100fa00007003d00320007000006eb000400370098
:100fb0003400070002003d002a0007001c0020004a
:100fc00072000700e3ff07000203be000002be003c
:100fd0000c00e00001003200220007000400be0007
:100fe0000601be004f0678004f05be004f04be004c
:100ff00000000600889fbe008a9fbe008c1f7800fc
:101000005100070005003d0056000700e00f5b009f
:10101000e08f5b0006003d00040037001900070068
:1010200003003d006000b8006011b8001000070028
:1010300056000700ceff07000203be000002be00fc
:101040000c00e00001003200060007000400be00b2
:101050000601be004f0678004f05be004f04be00db
:10106000000006006000b8006011b8000000370002
:1010700004025000858258000603590087835900f6
:10108000000006000006eb00e00f5200e08f5a005f
:10109000e00f5b00e08f5b00000006000180400075
:1010a00090b79f000001eb008fb097000100e000b7
:1010b000000006000200700090b79f000180400011
:1010c00080b79f000001eb00ffa897000100e0003f
:1010d000000006000200700080b79f000180400001
:1010e0006faa9700cf20de0001007000f0af9f00d4
:1010f00004024200250007004f18de0000027200c3
:1011000000000600e4af9f000804440089844c00fe
:101110000a054d008b854d00000006003fb2970088
:10112000cfb297005fb39700efb3970000fe2f0098
:10113000000006003fb09700cfb097005fb1970066
:10114000efb19700000006000205be000004be00db
:10115000e00f5000e08f5800e00f5900e08f590079
:10116000000006006000b8006011b80008045000dc
:10117000898458000a0559008b8559001c002000fd
:10118000e00f5200e08f5a00000006000800be0089
:101190000a01be0000000600889fbe008a9fbe00b4
:1011a0008c9fbe0000017800611e21001100e0004c
:1011b0000b003a00a01e2100308f8800108f88009d
:1011c000518f8800218f8800214090000004a000ea
:1011d000a0409800614090000004a000e04098000a
:1011e000e7004100c208de00c20cdd00238f800052
:1011f000ad1f2100e02521000d0550002200200038
:10120000811f7800110009000205d800000678004f
:10121000cf007800c308dd00e4854000158f800012
:101220008000eb00a71f2100661e2100010037008f
:1012300080017800234090000008a30002003200e3
:101240000a003700940978001302780024409000c7
:101250000008a300fbff320009814100820f520009
:1012600002003900830f5100430031001300780061
:10127000830f5000eeff3e00870f50000200390040
:10128000860f5000eaff3900858f51004b003a006d
:10129000860f500049003a008100e800e18f5000bd
:1012a000e3ff36008c8f5400040036008a8f540010
:1012b000020031000b04780012003700614ab800c8
:1012c0006151b900b0ff2f00010020000200500062
:1012d00083805800800f5200818f5a000200350031
:1012e00009047800070037000d8054001226210001
:1012f00002004000110009000a80d8000a80b900ed
:10130000000478000800780093fc07008001780052
:10131000e10f400029003200128f800000097800a0
:1013200064004100a2409000808f51000200320012
:101330000104a000010037000104a1002141980030
:1013400088804100e480500081097800118f880076
:10135000621e210082087800214090000004a00055
:10136000a0409800234090000004a100a0419800f4
:1013700082017800a9ff3700228f8800820f520077
:101380000800360012007800011e2100a2429000e1
:1013900085487800f08e8800040978000040eb0052
:1013a0002041980082097800234090000004a000aa
:1013b000a041980064804100010037000000eb006c
:1013c0004f06be004f05be004f04be0000000600e1
:1013d00064005000208f8800a04090000104a1000c
:1013e0002140980000000600889fbe008a9fbe0032
:1013f00000057800e401500013001000c285de00f3
:10140000234090000008a30004003200238f8800ce
:10141000234090000004a100a04198000100780042
:101420005dff0700000478000000e00017003200b4
:101430008a0f50001500320060b897000800500075
:10144000c284de00898f55000100360089057800ce
:101450004259dd008a007800080078004c0007003f
:101460008a0f5400090031004248dd0000004400aa
:101470008a0f5000050036000a00500000004400aa
:10148000f28e8000038f80000288be000800780082
:101490004f05be004f04be0000000600800078002b
:1014a0003004e000feff3a00010050000000e900b7
:1014b000000006000c00fa00889fbe0000047800bf
:1014c000cfb09700f0ff2700d0bf9f008004eb0053
:1014d00099bf9f0088bf9f00a8bf9f00200c2000dd
:1014e000b0bf9f0078815700708057003d00070013
:1014f0000fb89700094878000fb89700080450000b
:10150000080078004f04be000080fa0000000600ca
:101510000000fa00cfb8970068815700001621003c
:10152000300007000080fa0000000600889fbe001f
:101530000004be00060037000804e8000000fb00bd
:101540008900780023030700e10f40000400320007
:10155000184078000004e000f7ff3a000000eb00bc
:101560004f04be0000000600881f7800011621000d
:10157000eeff07000004780001162100a000200003
:1015800014030700080078004f04780000000600ec
:101590008001eb000200370061f079008301e80070
:1015a000828f5100fcff3a0000000600881f78007f
:1015b000007c80000000e00001003200000001001b
:1015c00048152100080078004b0307006c04440014
:1015d000401b2100800f5400faff3a004f047800ae
:1015e00000000600fe874700889fbe008a9fbe005d
:1015f0008c9fbe008e1f7800f0b79f000107780017
:1016000082bf9f000000eb00b0b79f00e6023700ea
:101610008006eb0050c2b30080cf500009003200ba
:101620000100fb00ffb09700ea020700e10f400055
:10163000dd023200bfb097008100e800b1b79f0023
:10164000d90237009e407800b0c2b30080cf50006e
:101650001300320007003c006b40500080cf500068
:101660000d0032006340400080cf500013003a006c
:101670000d003700d0c2b30080cf5000040032000c
:101680006340400080cf50000c003a000800370053
:101690000d30a000070037000d00a0000500370046
:1016a0000d10a000030037000db0a00001003700ae
:1016b0000d20a0000e07e800e2ff37000d18a30080
:1016c000010032000d00a1000d38a300010032001e
:1016d0000d20a1000100fb0002fd2f0002004000d0
:1016e000e90f50000e003e000002eb00d4af9f0057
:1016f000820178005fae97006a60b9001e01fb00ae
:101700000001410003014100d2af9f005e00fb00d9
:1017100003004000e90f50000b003e00f5ff3700ca
:101720000000eb00d0af9f00a0c2b30080cf5000fc
:1017300005003a008fb897004101780081bf9f00f3
:10174000d2af9f000e07e8000002eb00c4b79f0075
:10175000e0c2b3009e4f100018003a000de0a00058
:101760008e00e80064405000914f100002003200eb
:10177000010778000c0037000fbe97004c0078007e
:101780008cbf9f00c0b79f000e87e8000b0037009a
:101790004fb297006a20b9000000410003004000ea
:1017a000c0b79f000e07e8001e01fb0003fd2f00dd
:1017b00003004100e90f5000f5ff3600be407800fd
:1017c000e1d79f00c0c6b30080cf50002200320096
:1017d0000f003c006940500080cf5000770032007d
:1017e00004003c000104e000730232006b40500032
:1017f0000f00370040c6b30080cf50009300320086
:101800006540400080cf50008b003a008f003700c9
:1018100030c7b30080cf50001a00320007003c00f0
:101820006440500080cf5000110032000040e800ba
:1018300080cf500080003a000f00370050c7b3003f
:1018400080cf5000800032006340400080cf5000c5
:1018500079003a0009003700000028000d48a30075
:1018600001003a000001200080867600d3ff370097
:101870000d60a000750037000d50a0000d70a00095
:10188000720037000fbe97004c0078008cbf9f009d
:10189000000478000000e00001003a00481b21002d
:1018a0008004eb00010037008104e8008900780023
:1018b000088044001004e000fbff3a004fb097009e
:1018c0000000e00003003200890f500001003100e9
:1018d000800478008000eb00e1af9f005fa99700d3
:1018e000890f51000200360009005100e0af9f004f
:1018f0004368de00e10660001b003a000d06780038
:1019000009003700ffb097000002200031020700f5
:10191000e10f4000030032003fb297000402e800ec
:10192000b4b79f000c06e8006fa89700800f560020
:10193000f4ff3a008080eb00e1af9f000a0037001f
:10194000880078003100fb0001047800ffb09700a8
:1019500020020700e10f4000030032003fb1970072
:101960000201e800b2b79f000900e9008004780096
:10197000e10f4000f2ff3a000006eb000d00e0002e
:101980000a003a0008023700ffb09700000220006a
:1019900010020700e10f4000030032003fb2970041
:1019a0000402e800b4b79f000c06e8006fa8970097
:1019b000800f5600f4ff3a00fb0137008fb8970004
:1019c0004100780081bf9f00cf80de0001017800d8
:1019d000820178000205be000004be000203be00c2
:1019e0000002be004822de00482edd000402760020
:1019f000e4d79f000d48a3000a0032000404e00071
:101a000008003200e14f42000600320071fd2f0055
:101a10000f804000044878001840980029002000fa
:101a200002003700f0d79f001900200072fd2f0040
:101a30000f044100a1ff370064fd2f000f04420096
:101a4000190020009dff37000d0cb3000d00780039
:101a5000000cb20028003a000d00e00005003d0037
:101a60000fbe97004c05be004c04be008cbf9f000b
:101a7000140037000d48a3000b0032000fb9970087
:101a80004200be0082bf9f004f89de00cf91de0082
:101a90000002be0002037800820378000605be0043
:101aa0000404be00070037000fba97004400780016
:101ab00084bf9f0000047800cfc4de0009057800d1
:101ac0008a057800e00f5400e08f5c00e00f5d00b5
:101ad000e08f5d001f003d003d00b3006000b800d6
:101ae0006011b80008045000898458000a055900a4
:101af0008b855900170037000d00e00005003d0000
:101b00000fbe97004c05be004c04be008cbf9f006a
:101b1000100037000d48a300070032000fba9700ed
:101b20004400be0084bf9f006011b8000205be00e3
:101b30000004be00070037000fbe97004c0078007d
:101b40008cbf9f0000047800090020000a002000dc
:101b50000b0020004fb097000000e00007003a00a3
:101b6000e00f5400e08f5c00e00f5d00e08f5d004f
:101b700002003a0011002000c1b79f000d0178005b
:101b8000020cb200e2b79f0000042000800f510059
:101b90002d00320003003c000200e000080032008b
:101ba0003a003700000820006fb29700800f520003
:101bb00014003200000c2000800f520033003a0065
:101bc00014c0b300250b21000b0037000400fb00fc
:101bd0004300dd00050040005001be004000be0093
:101be0000040e10001c8e10002d0e10003d8e100bb
:101bf000250039000442e800f44f5200f3ff3a0098
:101c00002100370014c0b300250321000b0037006a
:101c10000400fb004300dd00050040005001be0051
:101c20004000be000040e10001c8e10002d0e10038
:101c300003d8e100140039000442e800f04f5200dc
:101c4000f3ff3a001000370014c0b30025f820005d
:101c50000b0037000400fb004300dd0005004000de
:101c60005001be004000be000040e10001c8e1009c
:101c700002d0e10003d8e100030039000442e8008b
:101c8000f64f5200f3ff3a00e4d79f006fd697005b
:101c90000c00fb00cfb09700810f500002003d0008
:101ca000e1d79f00040037004fb19700800f51002b
:101cb00001003d00c0b79f005faa97000400e0004c
:101cc0000400320063806600020032000402e90072
:101cd000d4af9f000de8a3000b0032005fae970069
:101ce0004fb09700800f560003003c008000eb00cf
:101cf000d1af9f00040037005fa997004fb2970053
:101d000004015100d2af9f00408c2000008066008b
:101d100001842000810f500006003a005fae97005a
:101d20000c00e000110032000c06e900dcaf9f005f
:101d30000e003700008c2000008066000188200023
:101d4000810f500009003a005fa89700e20f500091
:101d500003003c008000eb00d1af9f000300370080
:101d60005fa997000281e900d2af9f006fd2970070
:101d70000400fb000006eb00dcb79f00dfa8970023
:101d8000808f50000200340000805000d0b79f00c8
:101d90000d28a30053003200e18066000d18a30057
:101da0000c003200d00220000100e00001003a00e7
:101db0000080e900ffb0970006010700e10f400036
:101dc000270032003fb197000201e800b2b79f0040
:101dd000230037000100e00009003200ffb0970047
:101de00000022000fb000700e10f40001c00320051
:101df0003fb297000402e800b4b79f001800370014
:101e0000008c20000080660001882000810f5000b7
:101e100013003a00ffb0970000032000ed00070018
:101e2000e10f4000030032003fb697000c06e800c7
:101e3000bcb79f00800520000d58a30001003a00a8
:101e400080072000ffb09700e2000700e10f40008c
:101e5000030032003fb097000000e800b0b79f00d9
:101e6000dfb097000100e0000f0032000006eb0039
:101e7000ffb0970000032000d6000700e10f4000ec
:101e8000030032003fb197000201e800b2b79f00a3
:101e90000c06e8005fb29700840f5600f4ff3a008a
:101ea0000006eb00dcb79f004fb097008000e90010
:101eb000c308dd00200b21000080400090b79f0088
:101ec000200321000080400080b79f0020f8200000
:101ed00080804000f1af9f008000eb00a1b79f0021
:101ee0009b0037005fb197000200e0001100320054
:101ef000688066000f003a0000067800ffb0970087
:101f000000022000b3000700e10f40000300320090
:101f10003fb297000402e800b4b79f000c06e80047
:101f20005fb09700800f5600f4ff3a008000eb008e
:101f3000d1b79f00e18066000d18a3000c003200ad
:101f4000d00220000100e00001003a000080e9001a
:101f5000ffb097009f000700e10f40000e00320025
:101f60003fb197000201e800b2b79f000a003700b6
:101f70000100e00008003200ffb0970000022000de
:101f800094000700e10f4000030032003fb29700c9
:101f90000402e800b4b79f00008c20008080660037
:101fa00000842000808f500009003a00ffb09700a5
:101fb0000003200087000700e10f4000baff320055
:101fc0003fb697000c06e800bcb79f00b6ff37008d
:101fd00000882000808f5000b3ff3a00ffb09700c8
:101fe000000320007b000700e10f400003003200e7
:101ff0003fb097000000e800b0b79f0080052000c8
:102000000d58a30001003a0080072000ffb09700a0
:1020100070000700e10f4000a3ff3200bfb097003f
:102020008100e800b1b79f009fff37000004200047
:102030006fb19700800f51002700320003003c0071
:102040000200e000080032002c00370000082000e9
:102050006fb29700800f520011003200000c200078
:10206000800f520025003a001fb697003c02be00c8
:102070002c03be000800be000a01be00b5fb07002d
:10208000a4002000050020006033b800b8fb070062
:1020900004c3b30004424000e4d79f001700370098
:1020a000bc1b21000d58a30001003a00cc1c2100ec
:1020b0000fb097003002be002003be000800be0033
:1020c0000a01be00a3fb07006f0060006c467800a9
:1020d000ecd79f0009003700ffa897003102be002f
:1020e0002103be000800be000a01be0099fb0700e4
:1020f000674060000043b000e0d79f006fd19700b9
:102100000200fb00ffb0970032000700e10f400023
:10211000030032003fb297000402e800b4b79f000a
:102120002fb697000c06e800acb79f001fb09700d1
:102130006800500090b79f008fb09700e880500073
:1021400081b79f007fa9970068015100f2af9f00ff
:102150002fb297004fb697008c0f5200b3ff3a0092
:102160000d38a300100032005fb097000000e000bf
:102170000d0034000006eb00ffb0970000022000c5
:1021800014000700e10f400003003200bfb09700c9
:102190008100e800b1b79f000c06e8005fb197002e
:1021a000820f5600f4ff3a00be407800e1d79f004e
:1021b0000104e00016fd3a003fb097004f07780099
:1021c0004f06be004f05be004f04be00ef01b10038
:1021d00000000600889fbe0000017800010478001e
:1021e000b10090000118a3003d0032000198a30047
:1021f00003003a00180090000000e00038003a00a8
:102200000190a0003104980082047800f90fb20018
:10221000180090000000e00002003a002800900042
:10222000000c78003800900000b8a30006003200cf
:1022300000a8a30004003200210020006011b800b3
:102240000800780081000700b800900001007800c5
:1022500000b0a10030049800ea8f540005003a0055
:102260000178a30003003a0088007800d000200025
:10227000d8ff07009800900058009000808f500011
:102280000b0032000100e8001004980018007800ec
:1022900009587800000c780011c0b300001f21001d
:1022a00001487800ea8f5400060032000f00370022
:1022b0008800780009407800fe000700800478005c
:1022c0000a003700380090000088a30006003200a2
:1022d00008007800cd000700e10f400002003a003e
:1022e0008084eb0001003700a9002000090078007d
:1022f0004f04be0000000600889fbe008a1f7800c1
:102300000004780030009000630060002400320078
:1023100008007800bd0007003805900080ef2f000e
:102320000000650030049800280090000000e000e4
:1023300004003200e804650002003a0030010700a2
:10234000290498004800900099f80700e10f400028
:1023500013003200b80090000102b20010003a00f1
:102360000ac8a30018003200a08f80000000e0001f
:10237000150032000001780081047800012a200055
:1023800012289000880f5000070032004205b0006c
:102390004905b000818f54000b003200f8ff370070
:1023a0000080eb00090037000200780089f8070080
:1023b000a08f8000090040008000eb0011289800e9
:1023c00001007800010037000000eb004f057800a5
:1023d0004f04be0000000600881f7800000478004b
:1023e00040009000110020006011b80082f8070042
:1023f0000001be00180090000000e00002003d0057
:102400000000eb0010049800280090000000e0009d
:1024100008003200380090000098a3000500320048
:1024200018009000cf80de0002004000838048004a
:102430000400370018009000cf80de00000051003b
:10244000818059004f047800000006000400fa0063
:10245000889fbe008a9fbe008c1f7800000678000f
:1024600092bf9f00a3bf9f0001047800300090003e
:102470000040a100300698002c0090000000e00011
:1024800006003a004c0090005bf80700e10f4000a6
:10249000e08f480057003a0054003700e18f5000a9
:1024a00005003200e28f50000c0032000100e00015
:1024b000200032004d0037000c007800c6ff0700f6
:1024c0001fb99700afb9970002014000838148000f
:1024d00092bf9f00a3bf9f00160037000c0078003a
:1024e0004a0007004c009000110020006011b80065
:1024f00041f807000005be004c00900088007800fd
:102500006011b8003cf807000004be004c009000c9
:102510008000eb000a01be0037f807001fba9700e1
:10252000afba97000402440085824c0094bf9f001c
:10253000a5bf9f000c007800a7ff07001fba9700f7
:10254000afba97000001520081815a0003003200a7
:102550003c00900000b0a000300698003c029000c3
:102560000408a3000f003200620362000d003a006d
:10257000e00f5100e08f59000a0035009c029000e6
:102580006128b900800f5100818f590005003c007f
:1025900002805200100698001c0e410006007800d0
:1025a000150037000498a300050032001c009000bd
:1025b0000000e000020032000c0078001300070069
:1025c0008000eb0011069800ac029000050e780028
:1025d0004c0090001fb99700afb9970006f80700ac
:1025e000e00f5000e08f580002003d000080eb003b
:1025f000010037000000eb004f0678004f05be00d9
:102600004f04be000080fa0000000600881f78001a
:1026100000047800300090000008a300070032009a
:10262000800078000120b20004003a0011049800f4
:10263000a8009000010c7800170037000018a300d4
:10264000190032000098a30017003200a800900083
:102650000100e00014003200180190000200e000c8
:102660001100320048009000f0f707009800900039
:10267000810f500003003200380090000003b300c7
:10268000300498000000eb0010049800280090002f
:10269000000c7800380090000058a30002003200bf
:1026a0000080eb00010037000000eb004f047800d1
:1026b000000006000200fa00889fbe00a0ff9f00f5
:1026c0000104780031009000e200600004003a004c
:1026d0000003b3003004980011049800180037007c
:1026e000d80490000900e0001a003a006c00600075
:1026f00004003a003300070020049800e10f400076
:1027000011003a00290498005904980038009000fc
:102710000020a000300498001904980048009000a0
:1027200012002000e6805700c0f70700e10f5000bc
:102730001f003200380090000003b30030049800fe
:102740000080eb001c00370000202000500498009f
:102750000a00370018019000a8009000480090007f
:10276000b2f7070098009000810f5000030032007c
:10277000380090000003b3003004980010002000df
:102780001004980028009000aff8970001487800e6
:1027900028009000000ce800b80090000080eb00da
:1027a0000158a30004003a000190a00031049800f1
:1027b000aff897000180fb004f04be000080fa00d4
:1027c00000000600918f80000100e000030032004d
:1027d00011007800908f880003003700002020004f
:1027e0005df7070080007800e18f400002003a00aa
:1027f000906e2600b08f880001007800000006006f
:10280000918f800001087800908f880000000600fa
:020000040000fa
:020000040002f8
:04aff8005e7800007f
:020000040000fa
:020000040002f8
:04affc00793e00009a
:020000040000fa
:100008003238000032380000323800003238000040
:100018003238000032380000323800003238000030
:100028003238000032380000323800003238000020
:100038003238000032380000323800003238000010
:10004800382d000032380000323800003238000005
:1000580032380000323800003238000032380000f0
:10006800323800003238000032380000602e0000bc
:1000780032380000323800003238000032380000d0
:10008800323800003238000032380000d82d000025
:10009800a82f000032380000323800003238000043
:1000a80032380000323800003238000032380000a0
:1000b8003238000032380000323800003238000090
:1000c8003238000032380000323800003238000080
:1000d8003238000032380000323800003238000070
:1000e8003238000032380000323800003238000060
:1000f8003238000032380000323800003238000050
:10010800323800003238000032380000323800003f
:10011800323800003238000032380000323800002f
:10012800323800003238000032380000323800001f
:10013800323800003238000032380000323800000f
:1001480032380000323800003238000032380000ff
:1001580032380000323800003238000032380000ef
:1001680032380000323800003238000032380000df
:1001780032380000323800003238000032380000cf
:1001880032380000323800003238000032380000bf
:1001980032380000323800003238000032380000af
:1001a800323800003238000032380000323800009f
:1001b800323800003238000032380000323800008f
:1001c800323800003238000032380000323800007f
:1001d800323800003238000032380000323800006f
:1001e800323800003238000032380000323800005f
:0801f80032380000323800002b
:020000040000fa
:10020800323800003238000032380000323800003e
:10021800323800003238000032380000323800002e
:10022800323800003238000032380000323800001e
:10023800323800003238000032380000323800000e
:10024800382d000032380000323800003238000003
:1002580032380000323800003238000032380000ee
:10026800323800003238000032380000602e0000ba
:1002780032380000323800003238000032380000ce
:10028800323800003238000032380000d82d000023
:10029800a82f000032380000323800003238000041
:1002a800323800003238000032380000323800009e
:1002b800323800003238000032380000323800008e
:1002c800323800003238000032380000323800007e
:1002d800323800003238000032380000323800006e
:1002e800323800003238000032380000323800005e
:1002f800323800003238000032380000323800004e
:10030800323800003238000032380000323800003d
:10031800323800003238000032380000323800002d
:10032800323800003238000032380000323800001d
:10033800323800003238000032380000323800000d
:1003480032380000323800003238000032380000fd
:1003580032380000323800003238000032380000ed
:1003680032380000323800003238000032380000dd
:1003780032380000323800003238000032380000cd
:1003880032380000323800003238000032380000bd
:1003980032380000323800003238000032380000ad
:1003a800323800003238000032380000323800009d
:1003b800323800003238000032380000323800008d
:1003c800323800003238000032380000323800007d
:1003d800323800003238000032380000323800006d
:1003e800323800003238000032380000323800005d
:0803f800323800003238000029
:020000040000fa
:10281000556e0000686100006e6400006c65000089
:1028200064200000696e0000746500007272000090
:1028300075700000742c000020000000504900005a
:1028400043320000344600004a31000032380000b4
:10285000474100003030000036000000756e000077
:102860006b6e00006f7700006e00000043320000c6
:102870000041000032000000413300000041000030
:102880003400000043310000004400006576000081
:10289000696300006520000049440000203d0000fd
:1028a0002000000020280000002900002c2000004b
:1028b0007265000076690000736900006f6e0000a9
:1028c00020000000290a0000000a00000a2a000077
:1028d0002a2a00002a2a00002a2a00002a2a0000a8
:1028e0002a2a00002a2a00002a2a00002a2a000098
:1028f0002a2a00002a2a00002a2a00002a2a000088
:102900002a2a00002a2a00002a2a00002a2a000077
:102910002a2a00002a2a00002a2a00002a2a000067
:102920002a2a00002a2a00002a2a00002a2a000057
:102930002a2a00002a2a00000a2a00002057000044
:10294000415200004e4900004e470000202d00007b
:10295000207400006869000073200000707200009d
:102960006f670000726100006d2000007761000059
:1029700073200000636f00006d700000696c000040
:1029800065640000206600006f7200002074000083
:102990006865000020770000726f00006e6700001d
:1029a000202a00000a2a0000206300006869000055
:1029b000702000006f720000206600006f7200003f
:1029c000206100006e200000756e00006b6e00003c
:1029d0006f7700006e2000007265000076690000cd
:1029e000736900006f6e0000206f00006620000019
:1029f00074680000697300002063000068690000cb
:102a0000702100002020000020200000202a00006b
:102a10000a2a0000205400006869000073200000aa
:102a2000707200006f670000726100006d2000008e
:102a30006d61000079200000707200006f6400007a
:102a40007563000065200000756e00006578000069
:102a5000706500006374000065640000206200007f
:102a600065680000766900006f7200002120000098
:102a70004564000069740000202a00000a2a000052
:102a80002074000068650000206800006561000097
:102a90006465000072200000666900006c6500003b
:102aa00073200000746f000020700000726f00003f
:102ab00070650000726c0000792000006465000001
:102ac000666900006e6500002074000068690000ff
:102ad000732000006368000069700000206f000030
:102ae00072200000202a00000a2a00002072000044
:102af0006576000069730000696f00006e200000b9
:102b0000616e000064200000746f00002069000006
:102b10006e7300007572000065200000636f000096
:102b20007272000065630000742000006f70000086
:102b30006572000061740000696f00006e2e000075
:102b40002020000020200000202000002020000085
:102b5000202a00000a2a0000202000002020000077
:102b60002020000020200000202000002020000065
:102b70002020000020200000202000002020000055
:102b80002020000020200000202000002020000045
:102b90002020000020200000202000002020000035
:102ba0002020000020200000202000002020000025
:102bb000202000002020000020200000202a00000b
:102bc0000a2a0000204e00004f540000453a000041
:102bd000204900006620000074680000697300004e
:102be0002077000061730000206300006f6d00001b
:102bf000706900006c65000064200000666f0000d2
:102c0000722000007468000065200000636f0000ff
:102c100072720000656300007420000063680000a9
:102c2000697000002c200000202a00000a2a000001
:102c3000206100006e640000206f00006e6c0000d8
:102c4000792000006f63000063750000727300005c
:102c50002061000074200000706f000077650000a4
:102c6000722d00006f6e0000202800006e6f0000c3
:102c70007420000064750000726900006e67000037
:102c800020610000204d0000434c00005220000055
:102c900020200000202a00000a2a000020720000e4
:102ca00065730000657400002c200000766500004c
:102cb00072690000667900002074000068610000fd
:102cc00074200000415600004444000020610000d0
:102cd0006e640000204100005653000053200000a5
:102ce0006172000065200000636f00006e6e0000de
:102cf0006563000074650000642e00002020000061
:102d0000202a00000a2a0000204f00006e20000048
:102d10007468000065200000504900004332000044
:102d200034480000333200004750000032300000c9
:102d3000322c0000206e00006f7400002063000041
:102d40006f6e00006e65000063740000696e000025
:102d5000672000004156000044440000202000008d
:102d6000202000002020000020200000202a000059
:102d70000a2a000020700000726f000064750000d5
:102d80006365000073200000746800006973000030
:102d9000206d00006573000073610000676500002e
:102da000206f00006e6c000079200000617400004c
:102db000207000006f770000657200002d75000024
:102dc000702e0000202000002020000020200000a5
:102dd0002020000020200000202a00000a2a0000f5
:102de0002a2a00002a2a00002a2a00002a2a000093
:102df0002a2a00002a2a00002a2a00002a2a000083
:102e00002a2a00002a2a00002a2a00002a2a000072
:102e10002a2a00002a2a00002a2a00002a2a000062
:102e20002a2a00002a2a00002a2a00002a2a000052
:102e30002a2a00002a2a00002a2a00002a2a000042
:102e40002a2a00002a2a00000a0000004661000029
:102e50007374000020520000432000004f730000f4
:102e6000630a000000460000617300007420000047
:102e700052430000204f00007363000020770000e1
:102e80006974000068200000504c00004c0a0000eb
:102e900000500000726900006d610000727900004e
:102ea000204f0000736300002028000058540000e9
:102eb0002c200000485300002c2000004543000057
:102ec000290a000000500000726900006d610000d6
:102ed00072790000204f000073630000202800007a
:102ee000585400002c200000485300002c20000003
:102ef0004543000029200000776900007468000045
:102f0000205000004c4c00000a00000053650000f7
:102f1000636f00006e6400006172000079200000a1
:102f20004f730000630a0000004c00006f77000040
:102f3000205000006f7700006572000020520000f2
:102f4000432000004f730000630a000000460000a9
:102f5000617300007420000052430000204f000005
:102f6000736300002077000069740000682000008f
:102f7000506f00007374000073630000616c000008
:102f800065000000556e00006b6e00006f7700005a
:102f90006e2000006f730000636900006c6c00001d
:102fa000617400006f7200002074000079700000ee
:102fb000652e0000000a00004465000076690000ec
:102fc000636500002068000061730000206200005b
:102fd000656500006e200000696e0000207300002f
:102fe0006c65000065700000206d00006f640000db
:102ff000650a0000000a00004465000076690000d0
:10300000636500002068000061730000206200001a
:10301000656500006e200000696e000020690000f8
:10302000646c0000652000006d6f000064650000a6
:103030000a0000000a520000657300006574000079
:103040002063000061750000736500003a200000f5
:10305000005000006f770000657200002d6f0000c7
:103060006e2e00000a000000536f0000667400001e
:103070007761000072650000205200006573000057
:10308000657400002e0a0000005700006174000003
:1030900063680000646f000067200000546900004e
:1030a0006d6500006f750000743a0000200000009c
:1030b0000a0000004d4300004c5200002061000057
:1030c0007373000065720000746900006f6e000089
:1030d0002e0a000000420000726f0000776e0000b0
:1030e0002d6f0000757400002e0a000000540000cf
:1030f0007261000070200000436f00006e660000e7
:103100006c690000637400002e0a00000049000092
:103110006c6c000065670000616c000020430000db
:103120006f6e000064690000746900006f6e00003b
:103130002e0a0000004300006f6e00006669000068
:103140006775000072610000746900006f6e000016
:10315000204d0000697300006d6100007463000081
:10316000682e00000a000000556e00006b6e000023
:103170006f7700006e20000072650000736500002c
:10318000742e00000a00000045720000726f0000fb
:103190007220000074720000617000007065000011
:1031a000643a000020000000556e00006b6e0000c5
:1031b0006f7700006e20000070720000696f0000e1
:1031c00072690000747900002f76000065630000ca
:1031d000746f0000720000000a0a00000000000086
:1031e0006056000044490000505f0000496e000036
:1031f000697400003a2000005374000061720000fe
:1032000074650000642e0000600a00000060000089
:1032100056440000495000005f4900006e690000fc
:10322000743a000020460000696e000069730000d7
:1032300068650000642e0000600a00000060000065
:1032400056440000495000005f530000796e0000b2
:10325000633a0000205300007461000072740000a3
:10326000656400002e6000000a00000045000000b8
:103270006056000044490000505f00005379000090
:103280006e6300003a200000466900006e6900008d
:1032900073680000656400002e6000000a000000f2
:1032a0006056000044490000505f00005343000096
:1032b000533a000020530000746100007274000053
:1032c000656400002e200000536500007474000047
:1032d000696e000067200000536800006f720000f4
:1032e00074200000436f00006d6d0000616e0000ef
:1032f0006420000053650000746000000a000000b4
:103300005343000053000000605600004449000091
:10331000505f000053430000533a00002046000075
:10332000696e00006973000068650000642e00008b
:10333000204900006e200000536800006f720000fa
:1033400074200000436f00006d6d0000616e00008e
:103350006420000053650000746000000a00000053
:103360006056000044490000505f000053430000d5
:10337000533a000020460000696e000069730000a7
:1033800068650000642e0000204e00004f540000cd
:10339000204900006e200000536800006f7200009a
:1033a00074200000436f00006d6d0000616e00002e
:1033b0006420000053650000746000000a000000f3
:1033c0006056000044490000505f00005265000054
:1033d00073650000743a000020530000746100001f
:1033e00072740000656400002e6000000a00000096
:1033f0006056000044490000505f00005265000024
:1034000073650000743a000020460000696e0000f9
:103410006973000068650000642e0000600a000007
:103420000060000056440000495000005f4c00005e
:103430006973000074440000697200003a200000c3
:10344000537400006172000074650000642e000077
:10345000600a00000060000056440000495000006f
:103460005f4c000069730000744400006972000042
:103470003a200000466900006e6900007368000091
:10348000656400002e6000000a0000006056000025
:1034900044490000505f0000446900007249000088
:1034a000746500006d4300006f7500006e740000cd
:1034b0003a2000005374000061720000746500003f
:1034c000642e0000600a0000006000005644000006
:1034d000495000005f440000697200004974000018
:1034e000656d0000436f0000756e0000743a0000c7
:1034f00020460000696e00006973000068650000e6
:10350000642e0000600a00000060000056440000c5
:10351000495000005f460000696c000065530000e0
:10352000697a0000653a00002053000074610000d1
:1035300072740000656400002e6000000a00000044
:103540006056000044490000505f000046690000da
:103550006c650000536900007a6500003a200000a5
:10356000466900006e690000736800006564000031
:103570002e6000000a000000605600004449000070
:10358000505f000044690000736b00004578000044
:1035900069730000747300003a2000005374000047
:1035a0006172000074650000642e0000600a000073
:1035b0000060000056440000495000005f440000d5
:1035c000697300006b4500007869000073740000a7
:1035d000733a000020460000696e00006973000025
:1035e00068650000642e0000600a000000600000b2
:1035f00056440000495000005f460000696c00001e
:10360000654500007869000073740000733a00009b
:1036100020530000746100007274000065640000b3
:103620002e6000000a0000006056000044490000bf
:10363000505f0000466900006c650000457800009e
:1036400069730000747300003a20000046690000ae
:103650006e69000073680000656400002e60000061
:103660000a0000006056000044490000505f00005e
:103670005265000061640000466900006c6500004e
:103680003a2000005374000061720000746500006d
:10369000642e0000600a0000006000005644000034
:1036a000495000005f520000656100006446000060
:1036b000696c0000653a000020460000696e000059
:1036c0006973000068650000642e0000600a000055
:1036d0000060000056440000495000005f570000a1
:1036e0007269000074650000466900006c650000a6
:1036f0003a200000537400006172000074650000fd
:10370000642e0000600a00000060000056440000c3
:10371000495000005f5700007269000074650000a6
:10372000466900006c6500003a2000004669000010
:103730006e69000073680000656400002e60000080
:103740000a0000006056000044490000505f00007d
:10375000577200006974000065460000696c000043
:10376000654e00003a2000005374000061720000b2
:1037700074650000642e0000600a00000060000014
:103780005075000074200000696e000020420000a7
:10379000696e000061720000792000006d6f00000a
:1037a00064650000600a0000006000004f700000c7
:1037b000656e00002074000068650000206600004f
:1037c000696c000065200000666f00007220000038
:1037d0007772000069740000696e00006760000085
:1037e0000a00000060570000726900007465000064
:1037f0002074000068650000206100006374000010
:10380000756100006c2000006d650000737300009e
:1038100061670000652e0000600a00000060000083
:10382000436c00006f7300006520000074680000a6
:1038300065200000666900006c650000600a0000f9
:103840000060000056440000495000005f5700002f
:103850007269000074650000466900006c65000034
:103860004e3a000020460000696e000069730000b7
:1038700068650000642e0000600a0000006000001f
:1038800056440000495000005f440000656c000091
:103890006574000065460000696c0000653a000030
:1038a0002053000074610000727400006564000021
:1038b0002e6000000a00000060560000444900002d
:1038c000505f0000446500006c65000074650000f6
:1038d000466900006c6500003a200000466900005f
:1038e0006e69000073680000656400002e600000cf
:1038f0000a0000006056000044490000505f0000cc
:1039000050720000696e0000744c00006973000082
:1039100074440000697200003a20000053740000f3
:103920006172000074650000642e0000600a0000ef
:10393000003a0000200000006056000044490000ea
:10394000505f000050720000696e0000744c00006f
:103950006973000074440000697200003a2000009e
:10396000466900006e69000073680000656400002d
:103970002e6000000a000000310000003500000049
:103980003900000044000000320000003600000052
:103990004100000045000000330000003700000037
:1039a0004200000046000000340000003800000023
:1039b0004300000047000000494e00004954000049
:1039c0005f44000045460000415500004c54000093
:1039d0005f430000430a000000430000686f0000de
:1039e0006f730000652000004d6f000064650000eb
:1039f000005800002d4300006f7500006e74000039
:103a000072790000004900004e490000545f000038
:103a100054520000414300004b0a000000540000d3
:103a200072610000636b0000004c0000414e00001a
:103a3000450a0000004c0000616e00006520000097
:103a40004f700000746900006f6e0000004c0000b1
:103a5000616e0000650000004e4f00004c41000008
:103a60004e4500000a0000004e6f0000204c000090
:103a7000616e0000650000005354000041520000d8
:103a8000545f00004f500000544900004f4e0000aa
:103a90005f4d0000454e0000554f0000505400009f
:103aa000494f00004e0a0000004d0000616900000f
:103ab0006e2000004d6500006e7500000053000090
:103ac0007461000072740000204f000070740000e8
:103ad000696f00006e00000041550000544f000067
:103ae0005f440000494d00005f4d0000454e00005e
:103af000554f000050540000494f00004e0a00008e
:103b000000410000757400006f200000446900004f
:103b10006d000000454e000054450000525f00005b
:103b20005354000041520000545f00004d45000016
:103b30004e5500004f500000544900004f4e000009
:103b40000a000000456e000074650000724100002c
:103b50007353000074610000727400000052000092
:103b600045410000445900005f4d0000454e0000f3
:103b7000554f000050540000494f00004e0a00000d
:103b80000052000065610000647900003f00000001
:103b90005354000041520000545f00004f50000099
:103ba000544900004f4e00005f530000494e000092
:103bb000474c0000450a000000530000696e0000f9
:103bc000676c000065000000535400004152000083
:103bd000545f00004f500000544900004f4e000059
:103be0005f4d0000554c0000544900000a000000e1
:103bf0004d7500006c740000690000004155000024
:103c0000544f00005f440000494d00005f45000034
:103c10004e410000424c0000450a000000450000f3
:103c20006e610000626c00006500000041550000fc
:103c3000544f00005f440000494d00005f44000005
:103c400049530000414200004c4500000a000000ba
:103c50004469000073610000626c000065000000b0
:103c6000454e000054450000525f000053540000d0
:103c700041520000545f0000454e000041420000e8
:103c80004c4500000a000000454e0000544500006d
:103c9000525f00005354000041520000545f000086
:103ca0004449000053410000424c0000450a000016
:103cb0000052000045410000445900000a00000085
:103cc0004375000072720000656e000074200000f1
:103cd000546900006d650000003000003a300000bb
:103ce000303a000030300000300000005245000043
:103cf00041440000595f0000524500004c0a00009a
:103d00000052000045410000445900005f4200009d
:103d100045470000494e00000a00000043430000f0
:103d2000202d000020540000696d00006572000025
:103d300020520000756e00006e6900006e67000082
:103d40000a000000434300005f520000454c0000a1
:103d5000202d000020540000696d000065720000f5
:103d6000204500006e640000696e0000670a0000d4
:103d70000054000052410000434b0000202d000081
:103d800020540000696d00006572000020520000a0
:103d9000756e00006e6900006e6700000a0000008a
:103da00054720000616300006b2000004d6f000042
:103db000646500000054000052410000434b0000c5
:103dc0005f520000454c0000202d000020540000f0
:103dd000696d000065720000204500006e640000ff
:103de000696e0000670a000000460000494e0000ae
:103df00049530000480a000000460000696e0000b8
:103e00006973000068650000642e00002e2e00001b
:103e10000050000072650000737300002045000030
:103e20006e7400006572000000460000494e0000fc
:103e300049530000485f0000524500004320000045
:103e40002d20000052650000706f000072740000a9
:103e5000696e000067200000546900006d65000075
:103e6000730a000000460000494e0000495300005c
:103e7000485f0000524500004c2000002d2000004b
:103e8000476f0000696e000067200000746f00003b
:103e9000204900004e490000545f000044450000e6
:103ea00046410000554c0000545f000043430000b1
:103eb0000a0000005354000041540000455f000018
:103ec0005245000053450000540a00000025000040
:103ed000750000003a000000257500002e25000046
:103ee000750a000000740000696d00006520000084
:103ef000257500003a2000002573000000620000d4
:103f000075660000666500007220000025750000df
:103f10003a20000025730000006f0000687900005f
:103f200065610000682e00007478000074000000d5
:103f30000a620000756600006665000072200000dd
:103f400074750000726e000065640000206f000050
:103f500066660000000a00007472000061700000d4
:103f60005f74000065730000742e0000632c000075
:103f700020620000756900006c740000206f000072
:103f80006e2000004d6100007220000032380000f9
:103f90002032000030310000312000006174000048
:103fa00020310000363a0000333200003a31000080
:103fb000350a0000007e00004d610000696e0000bf
:103fc0004465000062750000672000006f6e00000d
:103fd000203a0000290a000000540000726100002d
:103fe000636b0000546900006d6500007200000002
:103ff000576500006c6300006f6d0000652e0000c7
:104000002e2e0000000000000a0a0000596f000078
:1040100075720000206300006c6f0000636b00008d
:1040200020630000686f00006963000065200000e5
:1040300066610000696c0000656400002074000087
:104040006f200000696e0000697400006961000063
:104050006c6900007a6500002c2000006861000097
:10406000766500002073000077690000746300002b
:104070006865000064200000746f00002069000083
:104080006e740000657200006e6100006c2000001c
:1040900046610000737400002052000043200000bd
:1040a0006f730000636900006c6c000061740000b5
:1040b0006f720000202b0000504c00004c2e0000be
:1040c0000a43000068650000636b0000207900006f
:1040d0006f750000722000007365000074740000aa
:1040e000696e000067200000666f0000722000000b
:1040f0007468000065200000274300004c4f00005a
:10410000434b00005f4300004f4e00004649000053
:1041100047270000206d000061630000726f0000ff
:104120002e0a000057610000746300006820000040
:104130007468000065200000636f00006d7000006f
:10414000696c000065720000206f0000757400004b
:104150007075000074200000776900006e64000034
:104160006f77000020770000686500006e20000077
:104170007069000063320000345f0000636c00006f
:104180006f6300006b66000072650000712e000016
:104190006320000069730000206300006f6d000061
:1041a000706900006c650000642c00002061000054
:1041b00020770000617200006e6900006e670000e9
:1041c000206d0000657300007361000067650000ea
:1041d0000a770000696c00006c2000007465000024
:1041e0006c6c0000207900006f75000020740000e6
:1041f0006865000020730000656c000065630000c6
:104200007465000064200000766100006c75000099
:1042100065200000666f0000722000002743000048
:104220004c4f0000434b00005f4300004f4e000026
:1042300046490000472700002e0a0000496e000092
:10424000204d0000504c0000414200002c20000096
:104250007573000065200000507200006f6a000056
:1042600065630000742d00003e4200007569000087
:104270006c640000204f000070740000696f000043
:104280006e7300002d3e0000507200006f6a000047
:1042900065630000742c0000207400006865000055
:1042a0006e200000636c0000696300006b2000005a
:1042b0006f6e0000204d0000504c00004142000095
:1042c00020430000333000002074000061620000d1
:1042d000207400006f20000073650000652000005e
:1042e00069660000200a0000746800006520000074
:1042f0006d610000637200006f20000069730000b0
:104300002064000065660000696e000065640000be
:104310002074000068650000726500002e20000017
:10432000496600002074000068650000206d0000f0
:1043300061630000726f00002069000073200000bc
:10434000736500006c65000063740000696e000016
:1043500067200000616e0000206500007874000096
:10436000657200006e6100006c2000006372000046
:1043700079730000746100006c2000002874000054
:104380006865000020700000726900006d61000027
:1043900072790000206f000073630000696c0000f8
:1043a0006c610000746f0000722900002c0a00008c
:1043b000616e000064200000796f000075720000db
:1043c000206200006f610000726400002064000041
:1043d0006f650000732000006e6f00007420000005
:1043e0006861000076650000206100002063000025
:1043f0007279000073740000616c00002c200000d2
:10440000796f000075200000776900006c6c000077
:1044100020670000657400002074000068690000d7
:10442000732000006d650000737300006167000079
:10443000652e00000a440000656c000065740000f1
:104440006520000074680000652000006d610000b8
:10445000637200006f200000646500006669000060
:104460006e690000746900006f6e00002066000035
:10447000726f00006d20000074680000652000006d
:104480004d5000004c4100004220000070720000be
:104490006f6a000065630000742000006966000018
:1044a000207900006f75000020770000616e000029
:1044b00074200000746f0000207500007365000018
:1044c000207400006865000020640000656600003c
:1044d000617500006c740000200a0000636c00002d
:1044e0006f6300006b200000636800006f690000cc
:1044f00063650000206f0000662000004652000047
:10450000432000002b200000504c00004c2e0000e7
:104510000a5900006f750000206d000075730000df
:104520007420000072650000636f00006d70000071
:10453000696c000065200000616e000064200000ce
:1045400072650000707200006f6700007261000009
:104550006d20000077690000746800002061000091
:104560006e20000061700000707200006f7000002b
:10457000726900006174000065200000434c000077
:104580004f4300004b5f0000434f00004e460000c9
:104590004947000020630000686f00006963000065
:1045a00065200000666f0000722000007468000043
:1045b00069730000206300006f6400006520000044
:1045c000746f0000206500007865000063750000ce
:1045d000746500002e0a00000045000072720000a1
:1045e0006f720000206900006e2000002e2e000077
:1045f0005c6300006f6d00006d6f00006e5c00007a
:104600007069000063320000345f0000636c0000da
:104610006f6300006b66000072650000712e000081
:10462000632000006c6900006e650000203100000e
:10463000383400003a200000415300005345000088
:104640005254000028750000385f0000736f0000ae
:104650007572000063650000203c000020380000f7
:104660002920000066610000696c0000656400009c
:104670002e0a0000000000005541000052540000c6
:104680003120000070610000726900007479000040
:1046900020650000727200006f7200000a000000c6
:1046a00055410000525400003120000066720000a5
:1046b000616d0000696e00006720000065720000f7
:1046c000726f0000720a00000055000041520000a5
:1046d00054310000206f0000766500007272000007
:1046e000756e000020650000727200006f7200009d
:1046f0000a00000045720000726f00007220000086
:10470000696e0000202e00002e2f0000696e000050
:10471000636c000075640000652f00007069000084
:1047200063320000345f00007561000072740000a5
:104730002e680000206c0000696e000065200000fb
:10474000373700003a200000415300005345000075
:1047500052540000286600005f620000726700008b
:10476000203c0000203600003535000033350000c5
:104770002e3500002920000066610000696c0000f1
:10478000656400002e0a0000005500004152000040
:104790005432000020700000617200006974000053
:1047a0007920000065720000726f0000720a00003c
:1047b0000055000041520000543200002066000005
:1047c000726100006d6900006e67000020650000e6
:1047d000727200006f7200000a0000005541000074
:1047e00052540000322000006f7600006572000015
:1047f000727500006e20000065720000726f00008c
:10480000720a000000450000727200006f72000022
:10481000206900006e2000002e2e00002f6900008d
:104820006e6300006c750000646500002f7000006e
:1048300069630000323400005f750000617200009f
:10484000742e0000682000006c6900006e65000096
:1048500020320000333500003a20000041530000b0
:104860005345000052540000286600005f620000bb
:1048700072670000203c0000203600003535000043
:10488000333500002e35000029200000666100004d
:10489000696c0000656400002e0a00000000000042
:1048a00045720000726f000072200000696e000007
:1048b000202e00002e5c0000636f00006d6d000074
:1048c0006f6e00005c70000069630000323400000d
:1048d0005f740000696d0000657200002e630000c7
:1048e000206c0000696e0000652000003538000073
:1048f0003a2000004153000053450000525400008c
:10490000286600005f740000696300006b7300009c
:10491000203c000020360000353500003335000013
:104920002e3500002920000066610000696c00003f
:10493000656400002e0a000000450000727200004d
:104940006f720000206900006e2000002e2e000013
:104950005c6300006f6d00006d6f00006e5c000016
:104960007069000063320000345f00007469000069
:104970006d650000722e0000632000006c6900006d
:104980006e65000020370000363a0000204100002c
:10499000535300004552000054280000665f000099
:1049a00074690000636b0000732000003c2000006d
:1049b0003635000035330000352e00003529000063
:1049c00020660000616900006c650000642e000034
:1049d0000a00000045720000726f000072200000a3
:1049e000696e0000202e00002e5c0000636f000046
:1049f0006d6d00006f6e00005c7000006963000068
:104a0000323400005f740000696d000065720000c0
:104a10002e630000206c0000696e0000652000001d
:104a200031310000303a00002041000053530000b3
:104a30004552000054280000753800005f54000003
:104a4000434b000050530000203c00003d2000007c
:104a50003329000020660000616900006c650000d9
:104a6000642e00000a00000045720000726f000012
:104a700072200000696e0000202e00002e5c0000f5
:104a8000636f00006d6d00006f6e00005c700000d1
:104a900069630000323400005f730000657200003b
:104aa000696100006c2e0000632000006c6900004a
:104ab0006e65000020370000373a000020490000f2
:104ac0006e760000616c00006964000020550000f3
:104ad0004152000054000000307800000045000002
:104ae000727200006f720000206900006e200000ea
:104af0002e2e00005c6300006f6d00006d6f0000e3
:104b00006e5c00007069000063320000345f0000da
:104b10007365000072690000616c00002e63000084
:104b2000206c0000696e0000652000003239000032
:104b3000323a0000204900006e760000616c0000ef
:104b4000696400002055000041520000540000003c
:104b500045720000726f000072200000696e000054
:104b6000202e00002e5c0000636f00006d6d0000c1
:104b70006f6e00005c70000069630000323400005a
:104b80005f73000065720000696100006c2e000018
:104b9000632000006c6900006e6500002033000097
:104ba000333100003a200000496e000076610000b9
:104bb0006c69000064200000554100005254000060
:104bc0000000000053500000493100002052000056
:104bd000656300006569000076650000204f0000f5
:104be00076650000726600006c6f0000770a0000b6
:104bf00000530000504900003220000052650000c0
:104c00006365000069760000652000004f760000b3
:104c100065720000666c00006f7700000a000000fb
:104c2000636f00006e760000657200007441000042
:0c4c30004443000031280000290000006f
:020000040000fa
:104c3c006860a900c622a8002c23a8006860a80000
:104c4c006060a800600020000100200002ee070058
:104c5c00000006006880a900c642a8002c43a800ea
:104c6c006880a8006080a80060002000010020007f
:104c7c00f9ed07000000060068a0a900c662a800b4
:104c8c002c63a80068a0a80060a0a8006000200009
:104c9c0001002000f0ed07000000060068c0a9002c
:104cac00c682a8002c83a80068c0a80060c0a80019
:104cbc006000200001002000e7ed07000000060066
:104ccc0068e0a900c6a2a8002ca3a80068e0a80070
:104cdc0060e0a8006000200001002000deed07006d
:104cec000000060069a0a900d282a80069a0a80053
:104cfc0061a0a8006000200001002000d6ed070094
:104d0c000000060069c0a900d2a2a80069c0a800d2
:104d1c0061c0a8006000200001002000ceed07005b
:104d2c000000060069e0a900d2c2a80069e0a80052
:104d3c0061e0a8006000200001002000c6ed070023
:104d4c00000006006a00a900d2e2a8006a00a800d0
:104d5c006200a8006000200001002000beed0700ea
:104d6c0000000600d806a900d802a900d826a90080
:104d7c00d822a900d846a900d842a900d866a90013
:104d8c00d862a90000000600d722a900d366a900aa
:104d9c00d362a900d206a900d202a9006820a900fa
:104dac00cda6a900cda2a9006800a900cdc6a90076
:104dbc00cdc2a90000000600d362a800d202a80050
:104dcc006820a900cda2a8006800a900cdc2a80047
:104ddc00d722a800000006006940a900e506a9003a
:104dec00e502a9006900a900e4c6a900e4c2a90073
:104dfc006920a900e4e6a900e4e2a900de06a90006
:104e0c00de02a900c726a900c722a9002d23a800ed
:104e1c0000000600d3ff0700dc02a900dc22a90079
:104e2c00dc42a900dc62a9006980a900c7e2a800e5
:104e3c002de3a8006980a8006a20a900de82a800e2
:104e4c006a20a8006a40a900dea2a8006a40a80057
:104e5c006960a900e522a8006960a8006000200034
:104e6c00010020007ced070000000600e14f50001f
:104e7c000900320003003900e24f500010003a00e4
:104e8c000a003700dc02a900dc22a800dc42a800e2
:104e9c00dc62a8000e003700dc02a800dc22a900ae
:104eac00dc42a800dc62a80009003700dc02a80084
:104ebc00dc22a800dc42a900dc62a8000400370058
:104ecc00dc02a800dc22a800dc42a800dc62a900fd
:104edc0000000600889fbe008a1f7800912c2000dd
:104eec009140780000c8b30000c0600002003a0096
:104efc00004578000d003700e0c2bf001ac0b300b7
:104f0c000048a30009003200e0c2bf002ac0b30071
:104f1c000058a30005003200e7c2bf005104200076
:104f2c000018a30025003a003ac0b3000004eb00bf
:104f3c008844780008407800ccff0700c942e200a2
:104f4c0009003d00e0c2bf000048a300060032008b
:104f5c00e0c2bf000058a30003003200e7c2bf004c
:104f6c000018a3000d003a00dc02a900dc22a90005
:104f7c00dc42a900dc62a9000980fb004200dd00d4
:104f8c008a80fb000100400000004000c1cb2900da
:104f9c00608078008080fb00080037000804e8007f
:104fac00e40f5400e2ff3a00dc02a900dc22a90065
:104fbc00dc42a900dc62a900510420000100780049
:104fcc004f0578004f04be000000060061416000f0
:104fdc004311dd00712d2000914078000134a100b7
:104fec0082c070008000fd00d7e2b7008000fd0099
:104ffc000080fb000001d10061416100612d2000a7
:10500c00914078000104a10082c070008000fd0076
:10501c00d6e2b7008000fd004201de006141610074
:10502c004511dd00112d2000914078000154a100a4
:10503c0082c070008000fd00d1e2b7008000fd004e
:10504c004300de00614060004600dd00112d2000b1
:10505c00914078000164a10080c0700001007800cc
:10506c00d1e2b70000000600d306a900d302a900c4
:10507c00d326a900d322a900d346a900d342a90064
:10508c00d722a900d742a900d702a9000000060028
:10509c006000200001002000efec0700d742a800c0
:1050ac006000200001002000ebec0700d742a900b3
:1050bc006000200001002000e7ec07000000060063
:1050cc00889fbe008a9fbe008c1f780080457800a8
:1050dc0001457800034678000204e0001d00320010
:1050ec00d702a90034ff070040c7bf004500de000f
:1050fc00e14460000060fe0040a7a800d742a80071
:10510c006000200001002000d3ec0700f82c2000e8
:10511c00184478004644de0061046400d742a900bc
:10512c006000200001002000cbec0700d8ff070036
:10513c000804e000f1ff3a00e1c06400c508dd009e
:10514c0040c7bf000054a1000140700040e7b70009
:10515c000b00370000a62e0001002000beec07005b
:10516c0060ea200001002000a25b8000b35b80009d
:10517c000201400083814800a25b8800b35b880079
:10518c0001ff07000a04e00002003200d702a80069
:10519c0001003700d702a9000b80fb004400de00a1
:1051ac008aff0700baff07000c04e000030032007e
:1051bc000b40780085ff0700b5ff07004f0678000d
:1051cc004f05be004f04be0000000600003e290043
:1051dc0041002000a0ec0700e09324000100200017
:1051ec00a25b8000b35b8000020140008381480019
:1051fc00a25b8800b35b88008041eb000341780020
:10520c008340780000c2b300adff070013c0b300a9
:10521c000041eb008240780080c2b300a8ff070079
:10522c0013c0b3000041eb008240780080c2b30091
:10523c00a3ff070013c0b3000041eb0082407800cd
:10524c0060c0b3009eff070013c0b3000041eb0029
:10525c0082407800c0c0b30099ff070013c0b300b0
:10526c000041eb00824078000340780094ff070077
:10527c00006524000100200077ec07005046200058
:10528c0001002000a25b8000b35b800002014000a3
:10529c0083814800a25b8800b35b88000000060095
:1052ac00881f780000047800104078000004e000ab
:1052bc000700320013c0b30003417800834078002c
:1052cc007fff0700584078000004e000f9ff3a0027
:1052dc004f047800000006001061a90000022000b5
:1052ec009008880012c1bf004400de00630060001b
:1052fc00210907008000780050002000a508070055
:10530c000000e900700888000a21ef008500a90060
:10531c00a8c0bf0081cfb300014060006040b30063
:10532c00a8e0b7009500a800000006001061a900d5
:10533c0000022000f00888001ec1bf004400de00ff
:10534c00630060000c090700800078002003200037
:10535c00900807000000e900d00888001421ef0035
:10536c008760a900b1c0bf00f1c8b3000140600064
:10537c000043b300b1e0b7009760a8001fe1a8009c
:10538c00000006001061a90000022000000988003e
:10539c0020c1bf004400de0063006000f608070077
:1053ac0080007800401f20007a0807000000e90008
:1053bc00e00888001821ef008780a900b2c0bf0068
:1053cc0081cfb300014060000004a000b2e0b70040
:1053dc009780a80000000600881f78000004780061
:1053ec0000408000880f5000560132006140b80028
:1053fc00f80f5000e08f580052013e000060010091
:10540c004e013700170037002700370037003700f0
:10541c004700370057003700670037007700370028
:10542c008700370097003700a7003700b700370018
:10543c00c7003700d7003700e7003700f700370008
:10544c0007013700090137000b0137001401370041
:10545c00160137001f0137002101370031013700d9
:10546c0033013700c0cd2900970a070013c0b300e1
:10547c000041eb00824078000340780010ff0700e9
:10548c00d0ce290086ff070013c0b300034178007b
:10549c008040eb0000ccb30009ff070090cf29003f
:1054ac007fff07002701370030d02900860a07004c
:1054bc0013c0b3000041eb00824078000340780039
:1054cc00fffe0700d0ce290075ff070013c0b30004
:1054dc00034178008040eb0000ccb300f8fe0700dd
:1054ec00f0d029006eff07001601370050d12900bb
:1054fc00750a070013c0b3000041eb00824078002e
:10550c0003407800eefe0700b0d1290064ff0700cd
:10551c0013c0b300034178008040eb0000ccb30013
:10552c00e7fe070070d229005dff07000501370078
:10553c00c0d22900640a070013c0b3000041eb007d
:10554c008240780003407800ddfe0700b0d12900ce
:10555c0053ff070013c0b300034178008040eb00f9
:10556c0000ccb300d6fe070040d329004cff070047
:10557c00f4003700c0d32900530a070013c0b3004e
:10558c000041eb008240780003407800ccfe07001d
:10559c0050d5290042ff070013c0b3000341780027
:1055ac008040eb0000ccb300c5fe0700f0d529000d
:1055bc003bff0700e3003700c0d62900420a070072
:1055cc0013c0b3000041eb00824078000340780028
:1055dc00bbfe070050d5290031ff070013c0b300f4
:1055ec00034178008040eb0000ccb300b4fe070010
:1055fc0010d829002aff0700d2003700a0d82900b4
:10560c00310a070013c0b3000041eb008240780060
:10561c0003407800aafe070050d5290020ff0700a0
:10562c0013c0b300034178008040eb0000ccb30002
:10563c00a3fe070020da290019ff0700c10037007c
:10564c00f0da2900200a070013c0b3000041eb0078
:10565c00824078000340780099fe070050d529005d
:10566c000fff070013c0b300034178008040eb002c
:10567c0000ccb30092fe070010dc290008ff0700e5
:10568c00b000370080dc29000f0a070013c0b300fc
:10569c000041eb00824078000340780088fe070050
:1056ac00f0d52900fefe070013c0b30003417800bb
:1056bc008040eb0000ccb30081fe0700d0dd290058
:1056cc00f7fe07009f00370040de2900fe090700a7
:1056dc0013c0b3000041eb00824078000340780017
:1056ec0077fe0700f0d52900edfe070013c0b300cc
:1056fc00034178008040eb0000ccb30070fe070043
:10570c0080df2900e6fe07008e003700e0df29006d
:10571c00ed09070013c0b3000041eb008240780094
:10572c000340780066fe070010d82900dcfe070055
:10573c0013c0b300034178008040eb0000ccb300f1
:10574c005ffe0700f0e02900d5fe07007d00370062
:10575c0060e12900dc09070013c0b3000041eb0035
:10576c00824078000340780055fe070010d82900cd
:10577c00cbfe070013c0b300034178008040eb0060
:10578c0000ccb3004efe070080e22900c4fe0700e7
:10579c006c00370000e32900cb09070013c0b300ed
:1057ac000041eb00824078000340780044fe070083
:1057bc0020da2900bafe070013c0b30003417800b9
:1057cc008040eb0000ccb3003dfe0700f0e0290068
:1057dc00b3fe07005b00370040e42900ba0907005c
:1057ec0013c0b3000041eb00824078000340780006
:1057fc0033fe070020da2900a9fe070013c0b3000e
:10580c00034178008040eb0000ccb3002cfe070075
:10581c0080e22900a2fe07004a00370090e529002b
:10582c00a909070013c0b3000041eb0082407800c7
:10583c000340780022fe070000e6290098fe0700ce
:10584c0013c0b300034178008040eb0000ccb300e0
:10585c001bfe0700d0e6290091fe07003900370037
:10586c0060e72900980907003600370010e8290086
:10587c009509070033003700e0e82900920907007a
:10588c0013c0b3000041eb00824078000340780065
:10589c000bfe070090cf290081fe0700290037007e
:1058ac0020ea2900880907002600370090eb290020
:1058bc008509070013c0b3000041eb00824078005b
:1058cc0003407800fefd070000ed290074fe070080
:1058dc001c003700b0ed29007b09070019003700c8
:1058ec0050ef29007809070013c0b3000041eb000a
:1058fc008240780003407800f1fd0700d0ef2900ca
:10590c0067fe070013c0b300034178008040eb0032
:10591c0000ccb300eafd070090f0290060fe070000
:10592c000800370050f1290067090700050037000f
:10593c0030f329006409070002003700a0f52900a4
:10594c0061090700084088004f0478000000060039
:10595c006860a900c622a8002c23a8006860a800d3
:10596c006060a8006000200001002000baea070077
:10597c006880a900c642a8002c43a8006880a80033
:10598c006080a8006000200001002000b2ea07003f
:10599c0068a0a900c662a8002c63a80068a0a80093
:1059ac0060a0a8006000200001002000aaea070007
:1059bc0068c0a900c682a8002c83a80068c0a800f3
:1059cc0060c0a8006000200001002000a2ea0700cf
:1059dc0068e0a900c6a2a8002ca3a80068e0a80053
:1059ec0060e0a80060002000010020009aea070097
:1059fc0069a0a900d282a80069a0a80061a0a80093
:105a0c00600020000100200093ea070069c0a90093
:105a1c00d2a2a80069c0a80061c0a8006000200044
:105a2c00010020008cea070069e0a900d2c2a8009e
:105a3c0069e0a80061e0a8006000200001002000df
:105a4c0085ea07006a00a900d2e2a8006a00a80053
:105a5c006200a80060002000010020007eea070020
:105a6c00000006003600f800809fbe00829fbe003a
:105a7c00849fbe00869fbe00405b80006500400096
:105a8c00405b8800713e2000810f50000200360000
